:020000040800F2
:10000000D86D00206502000881610008D939000818
:10001000C15F0008F90A00082189000800000000FB
:100020000000000000000000000000005177000800
:10003000450B0008000000004163000841810008F2
:100040007F0200087F0200087F0200087F0200088C
:100050007F0200087F020008C90E00087F02000826
:100060007F0200087F0200087F0200087F0200086C
:10007000FD0A0008090B0008150B00087F020008A4
:10008000210B00082D0B00087F0200087F020008EA
:100090007F0200087F0200087F0200087F0200083C
:1000A0007F0200087F0200087F0200087F0200082C
:1000B0007F0200087F0200087F0200087F0200081C
:1000C0007F0200087F0200087F0200087F0200080C
:1000D0007F0200087F020008D5880008E188000838
:1000E0007F0200087F0200087F0200087F020008EC
:1000F000218200087F0200087F0200087F020008BA
:100100007F0200087F0200087F0200087F020008CB
:100110007F0200087F0200087F0200087F020008BB
:10012000390B00087F0200087F0200087F020008E8
:100130007F02000800000000000000007F020008AD
:100140007F0200087F0200087F0200087F0200088B
:100150007F0200087F0200087F0200087F0200087B
:100160007F0200087F0200087F0200087F0200086B
:100170007F0200087F02000800000000000000006D
:100180007F0200087F02000800F002F800F05BF830
:1001900014A696E8000CB244B344DA4501D100F04D
:1001A00052F8BAE80F000FA696E83000A5EB040558
:1001B00004EB0607AAEB0704A7F101074FEA1515A0
:1001C0004FEA3414A4F10104AC4201D300F03BF82F
:1001D00013F0010F18BFFB1A43F0010300F001F800
:1001E000DBE7184728F9000048F90000103A24BF5F
:1001F00078C878C1FAD8520724BF30C830C144BF8C
:1002000004680C6070470000704700000023002461
:1002100000250026103A28BF78C1FBD8520728BF16
:1002200030C148BF0B607047642900F0098100208D
:1002300070471FB50CF091F89DE8030000F07AFAC2
:100240001FBD10B510BD00F037FB1146FFF7F1FFE1
:1002500008F0C2FC00F055FB03B4FFF7F2FF03BC4B
:1002600000F0FEFA0948804709480047FEE7FEE72C
:10027000FEE7FEE7FEE7FEE7FEE7FEE7FEE7FEE756
:1002800004480549054A064B704700000D820008E6
:1002900089010008D84B0020D86D0020D85D0020CF
:1002A000D85D002070B5064600F028FA056806F112
:1002B0000B0020F00704B4429CBF002070BD2B4609
:1002C0006A68BAB11068A04210D304F108018842EC
:1002D0003CBF5068586007D35168101941601168DD
:1002E000091B016058601460101D70BD13465268F0
:1002F000002AE7D12146284600F008FA0028DED17E
:1003000070BD70B50446051F00F0F8F90068002CB8
:1003100014BF446870BD002C18BFAC423CBF2046DF
:100320006468F8D301680A18AA4218BF456003D16F
:100330002A6805461144016028684119A1421CBF82
:100340006C6070BD6168696021680844286070BD98
:1003500053EA020C00F069802DE9F04B4FF00006E3
:10036000002B1FBFB3FA83F503FA05F424FA05F650
:100370005E4012BF1643B2FA82F502FA05F4C5F1E7
:1003800020051EBF22FA05FC44EA0C04203556EA7B
:10039000044C4FEA144418BF641C4FF000084FF09F
:1003A0000009904271EB030C39D3002919BFB1FA4F
:1003B00081F701FA07F6B0FA80F700FA07F6C7F1FD
:1003C00020071EBF20FA07FC46EA0C062037B6FBC2
:1003D000F4FCA7EB0507103F07F01F0BCBF120063D
:1003E0002CFA06F60CFA0BFB44BFB3460026202F6E
:1003F000A4BF5E464FF0000B5BEA060C08BF4FF04F
:10040000010B19EB0B0948EB0608ABFB027C06FB62
:1004100002CC0BFB03CCC01B71EB0C01C1E70B46FC
:10042000024641464846BDE8F08B13B5084318BF65
:100430004FF0FF300146AFF30080BDE81C4070472D
:100440002DE9F0410646002410687529314616A5AD
:1004500010D0AFF30080002802DA404213A507E075
:1004600031688A0701D512A502E0490704D511A514
:10047000012401E0AFF3008000210A2206F12407E5
:1004800009E0B0FBF2FCB0FBF2F302FB1C003030E1
:1004900078541846491C0028F3D123462A46304692
:1004A000BDE8F04100F07BB9000000002D00000025
:1004B0002B0000002000000040EA010310B59B075C
:1004C0000FD1042A0DD310C808C9121F9C42F8D0BE
:1004D00020BA19BA884201D9012010BD4FF0FF306F
:1004E00010BD1AB1D30703D0521C07E0002010BD85
:1004F00010F8013B11F8014B1B1B07D110F8013B11
:1005000011F8014B1B1B01D1921EF1D1184610BDF1
:1005100010B5431C02E010F8011B71B18107FAD13C
:100520004FF0013202C88C1A8C4314EAC211F9D080
:10053000C01A0A0603D0C01E10BDC01A10BD0A049E
:1005400001D0801E10BD0902FCD0401E10BD421E0D
:1005500012F8013F002BFBD111F8013B002B02F8F0
:10056000013BF9D17047032A40F2308010F0030CB0
:1005700000F0158011F8013BBCF1020F624498BFF6
:1005800011F801CB00F8013B38BF11F8013BA2F193
:10059000040298BF00F801CB38BF00F8013B11F00E
:1005A000030300F02580083AC0F0088051F8043BAE
:1005B000083A51F804CBA0E80810F5E7121D5CBF1B
:1005C00051F8043B40F8043BAFF30080D20724BF4E
:1005D00011F8013B11F801CB48BF11F8012B24BFE2
:1005E00000F8013B00F801CB48BF00F8012B704731
:1005F00010B5203AC0F00B80B1E81850A0E81850B0
:10060000B1E81850A0E81850203ABFF4F5AF5FEAFF
:10061000027C24BFB1E81850A0E8185044BF18C9A4
:1006200018C0BDE810405FEA827C24BF51F8043B4B
:1006300040F8043B08BF7047D20728BF31F8023B9F
:1006400048BF11F8012B28BF20F8023B48BF00F833
:10065000012B704702F0FF0343EA032242EA024201
:1006600000F024B84FF000020429C0F0128010F00E
:10067000030C00F01B80CCF1040CBCF1020F18BF7E
:1006800000F8012BA8BF20F8022BA1EB0C0100F011
:100690000DB85FEAC17C24BF00F8012B00F8012BE4
:1006A00048BF00F8012B70474FF0000200B5134619
:1006B00094469646203922BFA0E80C50A0E80C5082
:1006C000B1F12001BFF4F7AF090728BFA0E80C5033
:1006D00048BF0CC05DF804EB890028BF40F8042B2C
:1006E00008BF704748BF20F8022B11F0804F18BF99
:1006F00000F8012B704770477047704700487047FB
:1007000060000020704770477047704738B5044656
:100710000A4600206946AFF30080002808BF38BDB4
:1007200002460099204600F0A5F8012038BD0120BE
:1007300000F0BAB8F8B5AFF30080054600200C46CB
:100740000C2000BF0646A819A0420DD932466946C2
:100750000020AFF30080070008BF00F0A5F8009864
:10076000A04218BF0546C419FFF7C8FF0560074639
:10077000F01D20F007004619284600F00AF8B442A0
:1007800008BFF8BDA21B31463868BDE8F84000F04C
:1007900071B800210160416070470C2070472DE95D
:1007A000F0470D4699469246044600F12408016838
:1007B000880604D5E06921F01001216000E00120E5
:1007C000A84201DD471B00E00027A1697A1902EB6E
:1007D0000900081AA0612078C00602D42046AFF3B1
:1007E0000080002608E0D4E901211AF806009047AD
:1007F000206A401C761C20624E45F4DB2078C0063F
:100800000AD52046AFF3008006E0D4E9012130206C
:100810009047206A401C2062381EA7F10107F4DCD3
:1008200007E0D4E9012118F805009047206A401C30
:100830002062281EA5F10105F3DC2046AFF30080FD
:100840002078000602D50220BDE8F0870120FBE7F2
:1008500008B569468DF800000320ABBE08BD000056
:1008600001491820ABBEFEE7260002000048704791
:1008700058000020034640688C46002818BF884274
:100880003CBF03464068F8D318681844884207D034
:100890000CF1030020F00700001D411A521A014616
:1008A000081D0A60FFF72DBD10B500F039F8BDE84E
:1008B000104000F02FB870477546FFF7D7FFAE46DF
:1008C00005006946534620F00700854618B020B55C
:1008D000FFF7D6FCBDE820404FF000064FF00007C0
:1008E0004FF000084FF0000BAC46ACE8C009ACE894
:1008F000C009ACE8C009ACE8C00921F007018D4689
:10090000704710B50446AFF300802046BDE81040A4
:10091000FFF7A2BC002801D0FFF7A2BF704700007C
:1009200010B5012805D0002103A000F021F8012016
:1009300010BD09A1F8E7000053494752544D454DF9
:100940003A204F7574206F662068656170206D6570
:100950006D6F7279000000003A2048656170206D6B
:10096000656D6F727920636F727275707465640063
:1009700070B505460C460A2000E06D1CFFF768FFC5
:1009800035B128780028F8D102E0641CFFF760FF39
:1009900014B120780028F8D1BDE870400A20FFF794
:1009A00057BF00000146806B036C026C13F0500FC0
:1009B00007D0D20648BF00F0BDBB806BC26C0846B2
:1009C000104742F40071016401688A6812F0405FC8
:1009D00001D000F0ABBB027E002AFAD1CA6A12F441
:1009E000700F02D08A685205F3D44A6822F02002C0
:1009F0004A60016C21F480710164016CC90448BF34
:100A000000F094BB016C41F00101016400F08EBB69
:100A1000806B40210164416C41F00401416400F0AD
:100A200089BB0000806B00F083BB000040F20040F7
:100A3000C4F202004FF48051012201F057B80000C7
:100A400040F20040C4F202004FF48051002201F055
:100A50004DB80000002808BF7047F0B581B040F6DF
:100A6000000604460D46C4F20206002730464FF445
:100A70000041012201F03AF8284608F0A5FA304674
:100A80004FF40041002201F031F8284608F09CFAAA
:100A90000137A742EAD301B0BDE8F040704700003B
:100AA00040F24352C2F200021278002A18BF704787
:100AB00080B541F2A90CC208C2F2000C1CF802E099
:100AC00000F00700012383402EEA030301FA00F03F
:100AD00018430CF80200BDE88040704741F2A902BB
:100AE000C108C2F20002515C00F0070021FA00F0D8
:100AF00000F0010070470000FEE7000040F63400FF
:100B0000C2F2000000F040BD40F21470C2F20000DA
:100B100000F03ABD40F69400C2F2000000F034BD8F
:100B200040F27470C2F2000000F02EBD40F2D470AA
:100B3000C2F2000000F028BD40F2B460C2F2000032
:100B400000F022BD704700002DE9F04F8DB0CDE9D7
:100B50000701180A40F20008069002FB02F0C4F2F6
:100B6000020801904FF0FF30099300BF07990590EC
:100B7000471C881A0D4608990A97C91B80B28FB284
:100B80000B92394602463B46049003F09BFA0698C6
:100B900010218DF8330083464046002200F0A6FF66
:100BA00040F6F400C2F200000DF1330101224FF4CF
:100BB0007A7304460E4601F0D9FC4046102101220A
:100BC00000F094FF099810218DF8330082464046CA
:100BD000002200F08BFF2046314601224FF47A7349
:100BE00001F0C4FC40461021012200F07FFF0B9869
:100BF000394628441FFA80F948464A463B462E4665
:100C000003F060FA4046102100228DF833B000F066
:100C10006DFF0DF133072046394601224FF47A73F8
:100C200001F0A4FC40461021012200F05FFF404685
:100C30001021002255468DF833A000F057FF2046C2
:100C4000394601224FF47A73A24601F08FFC4046E8
:100C50001021012200F04AFF0A98089C0B99301AD3
:100C6000214489B287B238463A460B46039103F0D5
:100C700029FA4046102100228DF833B000F036FFEB
:100C80000DF133065046314601224FF47A7301F0DC
:100C90006DFC40461021012200F028FF4046102143
:100CA00000228DF8335000F021FF504631460122DA
:100CB0004FF47A7301F05AFC40461021012200F0F3
:100CC00015FF0B983A46201A1FFA80FA384651460B
:100CD000534603F0F7F9069D4046102100228DF897
:100CE000335000F003FF40F6F40BC2F2000B0DF19D
:100CF00033075846394601224FF47A7301F036FC27
:100D000040461021012200F0F1FE099E40461021CC
:100D100000228DF8336000F0E9FE58463946012282
:100D20004FF47A7301F022FC40461021012200F0BA
:100D3000DDFE0A9F4A46381981B248460B460291A9
:100D400003F0C0F94046102100228DF8335000F026
:100D5000CDFE0DF133095846494601224FF47A730E
:100D600001F004FC40461021012200F0BFFE404685
:100D7000102100228DF83360344600F0B7FE58464B
:100D8000494601224FF47A7301F0F0FB40461021EE
:100D9000012200F0ABFE07985146384487B238462E
:100DA0003A46534603F08EF94046102100228DF852
:100DB000335000F09BFE5846494601224FF47A73A7
:100DC00001F0D4FB40461021012200F08FFE404686
:100DD000102100228DF8336000F088FE5846494605
:100DE00001224FF47A7301F0C1FB40461021012229
:100DF00000F07CFE039938463A460B4603F062F950
:100E00004046102100228DF8335000F06FFE584606
:100E1000494601224FF47A7301F0A8FB40461021A5
:100E2000012200F063FE4046102100228DF833605D
:100E300000F05CFE5846494601224FF47A7301F0F7
:100E400095FB40461021012200F050FE04980299C3
:100E500002460B4603F036F94046102100228DF879
:100E6000335000F043FE5846494601224FF47A734E
:100E700001F07CFB40461021012200F037FE404685
:100E8000102100228DF8336000F030FE58464946AC
:100E900001224FF47A7301F069FB404610210122D0
:100EA00000F024FE0B9A059802FB02F1023000FBD1
:100EB00000100199884288BF013A0A989042FFF6D3
:100EC00055AE0DB0BDE8F08F012000F033BD00003D
:100ED00072B600BFFEE7000040F2435040F200113E
:100EE000C2F20000C0F20101016000218180704760
:100EF00070B5044640780D4600285BD0607940F21A
:100F00002A01C2F20001095CA94204D1A17839B9D1
:100F1000E178712904D12046294605F053F849E0CB
:100F200001306071C6B240F22A00C2F20000FFF741
:100F3000EFFAB0423ED1E178012040F2DC2E208071
:100F400000207029C2F2000E60710CD1217951B9D4
:100F50009EF8001040F2D022C2F200020023535447
:100F600001318EF800109EF800100C2922D141F2B8
:100F7000241C40F2D021C2F2000CC2F20001DCF8C5
:100F800000204B1E162100BF13F8016F8E4002395E
:100F9000881C42EA0602F7D141F2A901100CC2F204
:100FA00000014872100A88720020CA72CCF8000052
:100FB0008EF800002078002808BF70BD652D11D084
:100FC0004FF600300022C0F6000000BF1146022A92
:100FD00006D000EB81025268AA4201F10102F5D16C
:100FE000012908D800204FF48071E5702071712D1F
:100FF000218008BFA07070BDB0B581B00022009202
:1010000090F83C20012A02D1022001B0B0BDD1F8F5
:1010100000E00122BEF10A0F80F83C200ED31FFA37
:101020008EF25200036812FA8EF21E3A4FF0070C4D
:1010300053F80C5F0CFA02F4A54308E003680EEBCA
:101040004E02072553F8104F954024EA05051D6010
:101050008D6805FA02F21D682A431A604A68062A5A
:101060000ED802EB82014A1F01681F2351F8345F3A
:10107000934025EA03030B601FFA8EF3934014E0BC
:10108000016802EB82030C2A1FFA8EF203D851F892
:10109000304F233B02E051F82C4F413B1F259D4030
:1010A00024EA050502FA03F30D600A6842F2043CE3
:1010B0001A430A60C4F2010C0168BEF1120FACF5CC
:1010C000417308BF994205D1DCF8002042F4800248
:1010D000CCF800202EF00102102A08BF994205D05A
:1010E000002180F83C10002001B0B0BDDCF80010F9
:1010F000BEF1100F41F40001CCF80010F0D140F225
:101100002401C2F2000109684DF68362C4F21B3269
:10111000A1FB0212910C01EB8101490000910099A1
:101120000029DDD000990139F8E700007047000080
:101130007047000070470000002804BF012070477E
:1011400010B5016C39B9044600F0A0F82046002122
:10115000616484F83C10016CC9063AD4016C41F218
:1011600002129143023142F204320164C4F20102DC
:10117000116821F440311160136890E81210234384
:10118000D0F810E013604A68012422F480724A60AB
:101190004A68C0F6007442EA0E224A604A6822F0A9
:1011A00040724A604A6842EA0C024A608A6822F445
:1011B00000628A60C2688B681A438A60826A8B68A0
:1011C000A24223F070638B608B6804D123F04052FD
:1011D0000AE0012152E01A438A608A6822F04052F4
:1011E0008A60C26A8B681A438A608A6822F00202A7
:1011F0008A608A68037E90F8204042EA43028A604F
:101200004A6884B142F400624A604A684EF20003C0
:1012100022F460424A60426ACFF6FF734C6803EBE7
:101220004232224301E022F400624A60CA6A40F27C
:10123000000C22F47002CA62C3694269CFF6F07CE6
:10124000CC6A0CEB03532343CB628B6823F400730B
:101250008B6090F830308C6844EA43238B608B6855
:1012600023F480638B608B6843EA82228A600021CA
:101270004164026C012363F301020264002280F8DE
:101280003C20BDE810400846704700002DE9F041C1
:1012900086B0044642F200070068C4F20107002647
:1012A000B8420596CDE903660296019602D006B0D3
:1012B000BDE8F08143F630000096C4F202004169B7
:1012C0000DF1040841F4807141614169032501F485
:1012D0008071009100990096016841F0040101605D
:1012E000016801F00401009100990096016841F045
:1012F000010101600068414600F001000090009883
:101300000E20019007F56840CDE9025600F01EFB63
:1013100007F560404146CDE90155039600F016FB04
:1013200040F2B46546F21040C2F20005C4F2020079
:101330004FF48061C5E9000605F110004FF400622A
:101340004FF400534FF480778EC02846C5E90266FB
:10135000C5E9086600F0DCF9002818BFFFF7B8FD02
:10136000A563AC6306B0BDE8F0810000B0B582B003
:101370000023019390F83C30012B02D1022002B0EF
:10138000B0BD94460A460123016880F83C308B6862
:10139000DB0717D18B684DF6836443F001038B6044
:1013A00040F22403C2F200031B68C4F21B34A3FB07
:1013B0000434A30C03EB43030193019B13B1019B82
:1013C000013BF9E78B68DB0503D58B6823F4807359
:1013D0008B608C68036CE4070BD143F0100101644F
:1013E00000F14401002001220B681A430A6002B098
:1013F000B0BD40F20174A34303F5807303644B68EE
:101400005B0504D5036C012464F30D330364046CA1
:101410000023E4044FF0000444BF446C24F00604AD
:10142000446480F83C30836B40F6A51E40F62524CA
:10143000C0F6000EC0F60004C3E90FE440F6112424
:10144000C0F60004DC646FF022040C604C6842F2C9
:10145000043544F080644C608C68C4F2010544F4A7
:1014600080748C604C3104461846634600F0F0F9F5
:101470002A682168D20605D0A5F54172914225D08F
:1014800002B0B0BD42F20002C4F20102914215D096
:1014900042F20022C4F2010291420CD042F2001248
:1014A000C4F201029142EBD12A68D20606D0A5F51A
:1014B00082729142E4D12A68D206E1D451F8082F11
:1014C00012F0405FDCD14FF080428DE74FF60452BE
:1014D000CFF6FF72AA5812F0405FD1D108314FF019
:1014E000804281E770B5866D044600F005FB94F8F4
:1014F0003510022925D105462068216C026822F0AA
:1015000016020260426922F08002426109B9A16CB0
:1015100019B1016821F008010160016821F00101A1
:10152000016000BF20680068C0070ED000F0E4FA38
:10153000401B0628F6D320206065032084F8350080
:101540000CE080206065012008E0E06D3F2101FA99
:1015500000F0B060012084F835000020002184F8FC
:10156000341070BD90F83510022909D1052180F89A
:1015700035100068016821F001010160002070470A
:101580008021416501207047F0B581B000210091B4
:1015900040F22401C2F200010B68D0E9166148F262
:1015A000B51537680822C1F64E358A403A42A3FB8A
:1015B00005350CD003681C68640708D51C6824F046
:1015C00004041C60B260426D42F0010242650122D7
:1015D0008A403A4208D003685B691B0604D5B260B2
:1015E000426D42F00202426504228A403A4208D02B
:1015F00003681B689B0704D5B260426D42F0040289
:10160000426510228A403A4216D001680B681B07D7
:1016100012D5B2600B680A685B0306D4D20506D403
:101620000A6822F008020A6001E011033FD4016C4D
:1016300011B1044688472046C26D202101FA02F309
:101640003B4241D001680F68FF063DD5B36090F87A
:1016500035700B68052F1AD123F016030B604B6908
:1016600023F080034B61036C0BB9836C1BB10B68D7
:1016700023F008030B603F219140B160012180F805
:101680003510016D002280F83420D9BB3EE00A6895
:101690005B0310D4D20512D40A6822F010020A604B
:1016A000012180F83510002180F8341007E0816CAA
:1016B0000029BED1C0E7110301D4416C00E0C16B29
:1016C00011B1044688472046416DF9B1416DC90703
:1016D00016D0052180F835100168AA0A0B6823F09E
:1016E00001030B60009B01339342009302D80B6807
:1016F000DB07F7D1012180F83510002180F8341084
:10170000C16C19B101B0BDE8F040084701B0F0BDAF
:101710002DE9F041044600F0EFF9C4B1054602207E
:1017200084F835000020216884F83400086820F02F
:101730000100086020680168C9070BD000F0DCF9DF
:10174000401B0528F6D90321202203207AE001203E
:10175000BDE8F081016848F23F02CFF21002D4E9FF
:10176000013501EA020ED4E9032143EA0E032B43BB
:10177000D4E9056C1A43D4E907781143314341EAAF
:101780000702616A42EA0802042942EA0C0303D113
:10179000D4E90B273A43134303604269042922F03A
:1017A000070241EA02012DD1D4E90A5341EA0501B9
:1017B00043B3BCF5005F08D0BCF1000F12D1022D7D
:1017C00016D0012D07D09DB119E0032D17D8DFE801
:1017D00005F00B0F0B02A3F1C072B2FA82F25209AC
:1017E0004AB90FE0032D02D2012222B90AE006D144
:1017F000C3F3006232B101214022012022E0002225
:10180000002AF8D100F0F8024AF6AB23103ACAF6E3
:10181000AA23A2FB03374FF6442341613909C0F6DE
:101820000003595C40F2FF3398435F2A4FF03F02B8
:1018300088BF0430C4E9160102FA01F18160002278
:1018400001210020626584F83510BDE8F0810000B8
:1018500090F834C0BCF1010F04BF0220704770B58E
:101860004FF0010C80F834C0D0F858E090F835C043
:10187000BCF1010F37D14FF0020C80F835C04FF0AA
:10188000000CC0F854C0D0F800C08468056CC06D6E
:10189000DCF80060402C26F48026CCF80060CCF800
:1018A00004300B4604BF13460A463F2101FA00F0FC
:1018B000CCF80830CCF80C20CEF80800DCF800009A
:1018C00040F01600CCF800002DB1DCF8000040F02C
:1018D0000800CCF80000DCF8000040F00100CCF873
:1018E0000000002070BD002180F83410022070BD7F
:1018F000B0B5044600F000F9054640F24E00C2F2D1
:1019000000000078611C18BF044400BF00F0F4F828
:10191000401BA042FAD3B0BDFFF7EABF012818BFB1
:10192000704740F26860C2F20000016809B101200E
:101930000847704743F61441C4F201010A680242A5
:1019400014BF08607047FFF7E9BF00002DE9F04FB2
:1019500083B000F1200200F13E4741F600450092BD
:1019600007F1FF77C4F2020508224FEAB726A84222
:1019700008BF0722072E38BF4FEAB72200274FF0D3
:10198000000A4FF0000801920AE000BF08F10108C8
:101990000AF1020AB8F1100F07F1040700F09D8068
:1019A0000D68012202FA08FC15EA0C09EED04D6818
:1019B000032205F0030BABF10106012E02FA0AFE29
:1019C00010D88668CC6826EA0E0604FA0AF4344376
:1019D00084604468C5F3001524EA0C0605FA08F58E
:1019E0002E434660BBF1030F1BD0C6688D6826EA04
:1019F0000E0605FA0AF52E43BBF1020FC66010D1A0
:101A00006FF00302009D02EA580655F806C007F081
:101A10001C040F220B69A2402CEA0202A3401A43C5
:101A2000AA5102684B6822EA0E0203F0030606FA86
:101A30000AF6324313F4403F0260A7D0002243F677
:101A400044030292C4F202031A6843F6004442F4CB
:101A500080421A601A68C4F2010402F480420292C1
:101A6000029A28F003024FF6084C2244CFF6FF7C7E
:101A700052F80C3007F00C060F25B540AB43019D22
:101A800005FA06F6334342F80C30A2684B6842EA86
:101A9000090643F60C4CDD0258BF22EA0906A6608F
:101AA000C4F2010CDCF800209D0242EA090658BF8E
:101AB00022EA0906CCF8006062689D0342EA090642
:101AC00058BF22EA090666602268DB0342EA09067B
:101AD00058BF22EA0906266058E703B0BDE8F08F38
:101AE0000069084018BF012070470000002A08BFA5
:101AF000090481617047000044F2F830C2F200002E
:101B00000068704740F24E0044F2F831C2F2000023
:101B1000C2F2000100780A681044086070470000B3
:101B200080B543F60040C4F20200016841F4007140
:101B30000160016841F480610160016841F48071D5
:101B40000160032000F0BEF80F2000F005F800F05F
:101B500059F8002080BD0000B0B586B0002543F6DE
:101B600044010195C4F202010A68044642F00202EF
:101B70000A60096801A801F0020101910199694612
:101B800000F060F900F092F94DF683614000C4F274
:101B90001B31A0FB01014FF0FF3000EB914140F6FB
:101BA000EC1040F20042C2F20000C4F2010240F226
:101BB000E733C0E90021C0E902530561856100F007
:101BC00059FF08B106B0B0BD40F6EC10C2F20000FB
:101BD00000F0C0FF0028F5D105462C2000F034F8B5
:101BE0000F2C0CD82C202146002200F03FF840F2A8
:101BF0005000C2F200000460284606B0B0BD0120CB
:101C000006B0B0BD82B0002043F640010190C4F29E
:101C100002014A6842F480424A604A6802F4804203
:101C20000192019A00900868002240F080500860FC
:101C300008680F2100F08050009000986FF00100BC
:101C400002B000F013B80000002848BF704700F051
:101C50001F01012202FA01F11C2202EAD0004EF219
:101C60000012CEF2000281507047000010B54EF60F
:101C70000C5CCEF2000CDCF80030C3F3022E8EF0C8
:101C80000704042C28BF0424BEF103034FF0FF3ED9
:101C90000EFA04F438BF0023A14399400EFA03F36F
:101CA0009A43114300F1604200F00F03090102F56D
:101CB0006442043B6344002848BF03F10C021170E6
:101CC00010BD00004EF60C51CEF200010A684FF62E
:101CD000FF031A4060F30A2242F0806040F0FD707A
:101CE00008607047002804BF012070472DE9F041CB
:101CF00043F60808C4F202080446D8F8F8030D4673
:101D000000F00700884207D288F8F853D8F8F803A3
:101D100000F00700A84276D12068810717D5410757
:101D200005D5D8F8001041F4E051C8F800100107BB
:101D300005D5D8F8001041F46041C8F80010D8F873
:101D40000010A26821F0F0011143C8F80010C0078C
:101D50003FD1D8F8F80300F00700A84207D988F867
:101D6000F853D8F8F80300F00700A8424BD12068D8
:101D7000410707D5D8F80010E26821F4E05111437B
:101D8000C8F80010000708D5D8F80000216920F431
:101D9000604040EAC100C8F8000000F09BF8D8F8A5
:101DA00000104CF27E32C1F30311C0F60002515C08
:101DB00040F2240220FA01F140F25000C2F2000089
:101DC0000068C2F200021160FFF7C6FE0020BDE805
:101DD000F0816068811E022907D258F8081C890129
:101DE0005CBF0120BDE8F08110E0012807D158F860
:101DF000081C89035CBF0120BDE8F08106E058F8AB
:101E0000081C890702D40120BDE8F081D8F8001031
:101E100021F003010843C8F80000FFF76DFE0646F5
:101E200041F28837D8F80000616800F00C00B0EB90
:101E3000810F8ED0FFF760FE801BB842F2D90320DD
:101E4000BDE8F0810F22026043F60802C4F20202EC
:101E5000136803F003034360136803F0F003836027
:101E6000136803F4E053C360D2F800C04FF4E053AA
:101E700003EADC030361D2F8F80300F0070008600E
:101E80007047000040F2240043F60801C2F200004F
:101E9000C4F20201006809684CF28E32C1F382215B
:101EA000C0F60002515CC8407047000040F22400B8
:101EB00043F60801C2F20000C4F20201006809689A
:101EC0004CF28E32C1F34231C0F60002515CC84080
:101ED0007047000010B543F60404C4F202046068C1
:101EE00000F00C0008280AD0042819BF42F2004074
:101EF000C0F2F40047F64000C0F27D1010BD20682B
:101F000021682368490247F64001C0F27D1100F0C4
:101F10003F02C3F388105CBF42F20041C0F2F401FB
:101F2000A1FB00010023FEF713FA21680222C1F38E
:101F3000014102EB4101B0FBF1F010BD002804BFEC
:101F4000012070472DE9F04182B00446007843F645
:101F50000006C007C4F2020649D0B06800F00C00C9
:101F6000042809D13068800341D5606800283ED13B
:101F7000012002B0BDE8F081B06800F00C00082834
:101F800002D170684002EDD465683068B5F5A02FC5
:101F900005D0B5F5803F09D140F480300CE040F425
:101FA00080203060306840F4803005E020F48030DC
:101FB0003060306820F480203060FFF79DFD002DF8
:101FC000054611D03068800311D4FFF795FD401B02
:101FD0006428F7D928E100BFFFF78EFD401B642875
:101FE0004FF0030000F2E08030688003F4D42078E2
:101FF00080071BD5B06810F00C0F09D0B06800F056
:102000000C00082840F085807068400200F1818053
:102010003068800703D5E068012840F09A80306876
:10202000216920F0F80040EAC10030602078000704
:1020300034D42078400746D4A5695DB3B06800F079
:102040000C00082840F09C80012D00F08280706810
:10205000E16900F480028A427BD1216A00F03F02EC
:102060008A4276D147F6C071626A0140B1EB821FA5
:102070006FD1A16A4FF6FF73C903994300F4403250
:10208000A1F580318A4264D1E16A00F07060B0EB62
:10209000016F5ED1002002B0BDE8F08160690028C8
:1020A0005BD00020C4F247200121C0F8801EFFF75A
:1020B00023FD0546706F8007BBD4FFF71DFD401B55
:1020C0000228F7D9B0E0306C5FEAC0080AD40020DB
:1020D0000190306C40F080503064306C00F08050E3
:1020E0000190019847F20007C4F200073868C00564
:1020F00026D4386840F480703860FFF7FDFC054650
:102100003868C0051CD4FFF7F7FC401B0228F7D93C
:102110008AE0E068002840F20000C4F2472053D073
:1021200001210160FFF7E8FC054600BF3068800729
:102130003FF575AFFFF7E0FC401B0228F6D973E0CE
:10214000A568306F052D51D0012D56D140F001000A
:1021500059E0012002B0BDE8F0810020C4F2472020
:102160000021C0F8801EFFF7C7FC0546706F80078E
:102170007FF55FAFFFF7C0FC401B0228F6D953E0A4
:102180000027C4F2472700203866FFF7B5FC022D70
:1021900005460DD1306880015DD5FFF7ADFC401BD1
:1021A00002284FF00300F5D902B0BDE8F08100BF6E
:1021B000306880017FF56EAFFFF79EFC401B022860
:1021C0004FF00300F4D9EFE700210160FFF794FC22
:1021D000054600BF306880077FF528AFFFF78CFC0D
:1021E000401B02284FF00300F4D9DDE740F0040063
:1021F0003067306F40F0010005E020F001003067EB
:10220000306F20F004003067FFF776FC002D0546A4
:1022100041F2883713D000BF306F800712D4FFF728
:102220006BFC401BB842F7D9032002B0BDE8F08137
:10223000FFF762FC401BB8424FF00300B4D8306F88
:102240008007F5D4B8F1000F3FF5F6AE306C20F002
:1022500080503064F0E604F11C052FCD084340EABD
:102260008210D9034FF6FF729143A1F5803140EA05
:1022700005600843706001203866FFF73DFC0446A6
:10228000306880013FF506AFFFF736FC001B0228DF
:102290004FF00300F4D987E770B528B1416A29B13E
:1022A00000210161142106E0012070BD4168B1F5F3
:1022B000827F02D01C21002242500026866290F8C4
:1022C000511029B980F85060054600F03DF82846C5
:1022D000022180F8511090E82E0002F482720C68FE
:1022E00003F4044324F040040C601A4405F4006332
:1022F00005691A4405F0020345691A4405F0010313
:102300008569C4691A4405F400731A4404F038035B
:10231000046A1A4404F08003846A1A4304F40053E4
:102320001A430A60436A042202EA154203F01003CA
:102330001A444A60CA6922F40062CA6101214665F2
:1023400080F85110304670BD80B586B0006843F605
:102350000002C4F2000200219042CDE90411CDE94F
:102360000211019124D043F20001C4F2010188421C
:1023700049D1002043F630010090C4F202014A69BD
:1023800042F480524A614A6902F480520092009AF3
:1023900000900868A02240F001000860086803214E
:1023A00000F00100009000980020C4F202001FE03D
:1023B00043F630000091C4F20200026942F4804208
:1023C0000261026902F480420092009A0091016861
:1023D0004FF4704241F0020101600068022100F0F8
:1023E0000200009000980020C4F2020000F5806016
:1023F0000192022202920022CDE9032105210591DA
:1024000001A9FFF7A3FA06B080BD00002DE9F04155
:1024100082B0044690F85100012818D100294FF0ED
:10242000010018BF002A02D102B0BDE8F081606847
:102430001D461746B0F5827F02D1A06800284ED015
:102440000E46FFF759FB94F85010012903D10220E2
:1024500002B0BDE8F0818046012084F850000420DD
:1024600084F8510000206065A663A787E787206392
:10247000A086E086A1682064B1F5004F606408D1B1
:102480002068016821F040010160016821F4804169
:10249000016020680168490603D4016841F04001E9
:1024A0000160E168E08F31B3002848D06F1C09E07B
:1024B000C068A16B21F8020BA163E08F0138E087AF
:1024C000E08FE0B320688168C907F1D1FFF714FB02
:1024D000002FF5D0A0EB0800A842F1D325E004209E
:1024E00084F8510020460A463B46009500F034F936
:1024F00002B0BDE8F08110B36F1C0AE0007BA16B55
:102500000870A06B0130A063E08F0138E087E08F96
:10251000A8B120688168C907F0D1FFF7EDFA002F54
:10252000F5D0A0EB0800A842F1D3012084F85100B7
:10253000002084F85000032002B0BDE8F08120465E
:102540002946424605F064F800281CBF202060653B
:10255000012084F85100002084F85000606D0028AC
:1025600018BF012002B0BDE8F08100002DE9F04164
:1025700084B01D4616460F460446FFF7BDFA94F890
:10258000511001290DD18046002F4FF0010018BFD6
:10259000002E02D104B0BDE8F08194F8500001286B
:1025A00003D1022004B0BDE8F081012084F850007E
:1025B000032084F85100002060652763A686E68624
:1025C000A063A087E087A168C4E91000B1F5004FBF
:1025D00008D12068016821F040010160016841F4E0
:1025E0008041016020680168490603D4016841F018
:1025F000400101606168731EE268B1FA81F1B3FACB
:1026000083F349095B09B2F5006F41EA030124D164
:1026100031B137F8021BC1602763E08E0138E086D4
:10262000E08E002847D06E1C0AE000BF216B31F815
:10263000022BC2602163E08E0138E086E08ED0B3C9
:10264000206881688907F1D4FFF756FA002EF5D08B
:10265000A0EB0800A842F1D323E039B13978017327
:10266000206B01302063E08E0138E086E08E10B3ED
:102670006E1C0AE0216B09780173206B0130206326
:10268000E08E0138E086E08EA8B120688168890775
:10269000F0D4FFF731FA002EF5D0A0EB0800A842E5
:1026A000F1D3012084F85100002084F85000032069
:1026B00004B0BDE8F0812046022101222B46CDF86E
:1026C000008004F0D5FFE0B1606D40F0200060654F
:1026D00020206065A06838B9002002902068C16899
:1026E0000291806802900298012084F85100002035
:1026F00084F85000606D002818BF012004B0BDE8C8
:10270000F08140F22400C2F20000006849F68171B5
:10271000C1F25E61A0FB0101480D4FF47A7148439C
:1027200003906068B0F5827F0AD1204680210022A4
:102730002B46CDF8008004F09BFF0028C4D1C9E7E8
:1027400003980028C6D00398013803902068806859
:102750000006F5D4BEE700002DE9F04383B01E4625
:1027600015460F460446FFF7C7F994F85110814605
:10277000012908D1002F4FF0010018BF002D0ED104
:1027800003B0BDE8F0836068B0F5827F0DD1042905
:102790004FF00200F4D1A1680029EBD0F0E7002E41
:1027A000EED094F85000012803D1022003B0BDE818
:1027B000F083012084F8500094F85100002104288F
:1027C0001CBF052084F851006165A563E687A687D4
:1027D0002763E6862068A68621646164016849064D
:1027E00003D4016841F0400101606168731EE26832
:1027F000B1FA81F1B3FA83F3DDF8288049095B0966
:10280000B2F5006F41EA030137D131B137F8021B4D
:10281000C1602763E08E0138E086012608F10105DA
:10282000E08E10B9E08F00286CD02068816889079D
:102830000CD5E18E51B1012E08D1216B002631F863
:10284000022BC2602163E18E0139E1868168C907EC
:102850000AD0E18F41B1C068A16B012621F8020BBB
:10286000A163E08F0138E087FFF746F9002DD7D04C
:10287000A0EB09004045D3D33AE039B13978017370
:10288000206B01302063E08E0138E086012608F1DC
:10289000010500BFE08E08B9E08F98B32068816819
:1028A00089070DD5E18E59B1012E09D1216B002682
:1028B00009780173206B01302063E08E0138E086D7
:1028C00020688168C9070BD0E18F49B1C068A16B4E
:1028D00001260870A06B0130A063E08F0138E0870B
:1028E000FFF70AF9002DD5D0A0EB09004045D1D360
:1028F000012084F85100002084F85000032003B028
:10290000BDE8F0832046022101224346CDF8009025
:1029100004F0AEFE60B1606D40F0200060652020E4
:102920006065002084F85000012003B0BDE8F0830A
:1029300040F22400C2F20000006849F68171C1F241
:102940005E61A0FB0101480D4FF47A71484302908B
:102950006068B0F5827F0AD120468021002243467C
:10296000CDF8009004F084FE0028D4D108E002984D
:1029700030B1029801380290206880680006F6D4D1
:10298000A06838B9002001902068C1680191806872
:1029900001900198012084F85100002084F8500033
:1029A000606D002818BF012003B0BDE8F08300006F
:1029B000704700007047000090F83C20012A4FF05B
:1029C000020255D010B5012380F83C3080F83D203C
:1029D0000268D2F804E0D2F808C00C682EF0700348
:1029E000234341F2FF74C4F20004A24253600DDCA1
:1029F00040F2FF73C4F200039A4215DCB2F1804F3B
:102A000029D040F20043C4F2000322E040F2FF3339
:102A1000C4F201039A4212DC41F60003C4F200033F
:102A20009A4218D0002312E040F60003C4F20003DB
:102A30009A4210D040F60043C4F2000309E044F289
:102A40000003C4F201039A4205D040F20043C4F2ED
:102A500001039A4204D149682CF080031943916024
:102A60000121002280F83D1080F83C20BDE8104094
:102A700010467047002804BF0120704710B5044677
:102A800090F83D0028B9002084F83C00204600F072
:102A90001FF8022084F83D002068211D05F0C6FBC8
:102AA000012084F8460084F83E0084F83F0084F852
:102AB000400084F8410084F8420084F8430084F820
:102AC000440084F8450084F83D00002010BD00005B
:102AD00070B582B00446006840F20041C4F20001C3
:102AE000884201D002B070BD002043F64001019041
:102AF000C4F202010A6840F2147542F002020A6050
:102B00000A6801F5205102F002020192019AC2F214
:102B100000054FF0206240234FF4804685E80E0008
:102B200005F10C014FF4806C4FF4805E81E8015098
:102B3000C5E90660C5E908002846FEF7E9FD00285A
:102B400018BFFEF7C5F92563AC632562AC6302B01C
:102B500070BD000090F83D1001291CBF0120704796
:102B6000022180F83D10006841F2FF72C168C4F292
:102B70000002904241F00101C1600DDC40F2FF71A2
:102B8000C4F20001884215DCB0F1804F29D040F238
:102B90000041C4F2000122E040F2FF31C4F2010121
:102BA000884212DC41F60001C4F20001884218D0CC
:102BB000002112E040F60001C4F20001884210D06A
:102BC00040F60041C4F2000109E044F20001C4F201
:102BD0000101884205D040F20041C4F2010188425F
:102BE00006D1816801F00701062904BF0020704763
:102BF000016841F0010101600020704790F83C201D
:102C0000012A4FF002026ED080B5012380F83C30DB
:102C100080F83D20D0F800C04FF67772DCF808301D
:102C200023EA0202CCF808200B684F2B28DC1F2B6C
:102C300044DD202B45D0302B43D0402B40F0AC80DE
:102C4000D1F804E0C968DCF82030DCF8202022F05C
:102C50000102CCF82020DCF8182022F0F00242EA31
:102C6000011123F00A0242EA0E02CCF81810CCF847
:102C70002020DCF8081041F0470121F0300127E066
:102C80006F2B32DDB3F5005F73D0B3F5805F21D0D9
:102C9000702B40F08180D1E901E3C968DCF808209D
:102CA00043EA0E0322F47F4243EA01211143CCF8A8
:102CB0000810DCF8081041F0770109E00BB1102B87
:102CC0006AD1DCF8081021F07001194341F00701C6
:102CD000CCF808100022012180F83D10002180F876
:102CE0003C10BDE8804010467047502B21D0602B2F
:102CF00052D1D1F804E0C968DCF82030DCF820209B
:102D000022F01002CCF82020DCF8182022F47042C7
:102D100042EA013123F0A00242EA0E12CCF8181068
:102D2000CCF82020DCF8081041F0670121F01001F8
:102D3000CEE7D1F804E0C968DCF82030DCF82020C8
:102D400022F00102CCF82020DCF8182022F0F0025A
:102D500042EA011123F00A0242EA0E02CCF81810EE
:102D6000CCF82020DCF8081041F0570121F02001B8
:102D7000AEE7D1E901E3C968DCF8082043EA0E03B5
:102D800022F47F4243EA01211143CCF80810DCF819
:102D9000081041F480419BE701229CE77047000046
:102DA00070B504460068C5680669B10716D515F008
:102DB000020113D06FF002010161012121778069C6
:102DC000800703D02046FFF7E9FF05E0204600F02A
:102DD0008DF8204600F0C8F900202077700718D53C
:102DE00015F0040015D020686FF004010161022184
:102DF0002177806910F4407F03D02046FFF7CEFF93
:102E000005E0204600F072F8204600F0ADF9002001
:102E10002077300717D515F0080014D020686FF020
:102E20000801016104212177C069800703D0204691
:102E3000FFF7B4FF05E0204600F058F8204600F008
:102E400093F900202077F00618D515F0100015D062
:102E500020686FF01001016108212177C06910F42A
:102E6000407F03D02046FFF799FF05E0204600F0A1
:102E70003DF8204600F078F900202077F00718BFD1
:102E800015F0010002D1300609D412E020686FF07D
:102E900001010161204600F069F9300609D515F0FD
:102EA000800006D020686FF0800101612046FFF7A6
:102EB0007FFD700609D515F0400006D020686FF040
:102EC00040010161204600F05BF9B00658BF70BDBB
:102ED00015F0200008D021686FF0200220460A611A
:102EE000BDE87040FFF766BD70BD00007047000090
:102EF00090F83C30012B04BF022070474FEAB20229
:102F00000123032A80F83C3000F2F8802DE9F043D9
:102F1000DFE802F002AF3D7D036840F200461C6A24
:102F20001A6A24F0020422F001021A621A46D3F847
:102F300004C052F818EF8F6843F48065C4F20106AC
:102F4000B54244EA070405D1CF6824F00C0427F009
:102F500004073C430F68B54206D1D1E905582CF46B
:102F600040762E4346EA080C2EF073063743C3F82A
:102F700004C09F614F6809695F631C629F6947F0E5
:102F800008079F619F6927F004079F61B0E003680D
:102F900040F200481C6A1A6A24F4007422F4807219
:102FA0001A621A46D3F804C052F81CEF8F6843F433
:102FB0008065C4F20108454544EA072408D1CF687A
:102FC00040F2FF463F0224F4406427EA06063443F9
:102FD000D1F80090454506D1D1E905562CF440576B
:102FE0002E4347EA061C2EF0730747EA0907C3F889
:102FF00004C0DF614F680969DF631C62DF6947F065
:103000000807DF61DF6927F00407DF6170E003680C
:1030100040F20045D3F820C01A6A43F4806722F4D6
:1030200080521A621A465C6852F81C8FD1F800E090
:103030008E68C4F20105AF4204D14D6924F4804486
:1030400044EA85142CF4005747EA063728F4E6468C
:1030500046EA0E265C60DE614E6809691E641F62E6
:10306000DF6947F40067DF61DF6927F48067DF61AC
:103070003DE0036840F200481C6A1A6A24F020040C
:1030800022F010021A621A46D3F804C052F818EF60
:103090008F6843F48065C4F20108454544EA07148B
:1030A00007D1CF686FF0400624F0C00406EA071687
:1030B0003443D1F80090454506D1D1E905562CF4AA
:1030C00040672E4347EA860C2EF4E64747EA092775
:1030D000C3F804C09F614F6809699F631C629F69C0
:1030E00047F400679F619F6927F480679F61090229
:1030F0001368194300231160BDE8F043002180F8F4
:103100003C10184670470000002804BF012070479B
:1031100010B5044690F83D0028B9002084F83C0022
:10312000204600F01FF8022084F83D002068211D91
:1031300005F07CF8012084F8460084F83E0084F80D
:103140003F0084F8400084F8410084F8420084F88D
:10315000430084F8440084F8450084F83D000020D2
:1031600010BD00007047000070470000006840F28A
:103170000041C4F20101884218BF7047FEF7C2BC8B
:10318000704700007047000070470000B0B582B083
:1031900001680A68CC684B6902F02F05202D04F005
:1031A000200505D125B102B0BDE8B04005F06CBAEC
:1031B0005FEA027C1EBF03F0010E04F4907313EB70
:1031C0000E0340D1036BD50618D5012B16D114F090
:1031D000100313D0002201920A6801924A680192FA
:1031E000019A4969490647D4818DC28DC38D002B50
:1031F00018BF914240F01A8102B0B0BD13062AD523
:1032000014F0800327D090F84120212AF4D182685D
:10321000B2F5805F03D10269002A00F03A81026AA8
:10322000531C036212784A60C28C013A1304C284B0
:10323000E2D1C86820F08000C860C86840F0400053
:10324000C86002B0B0BDD10718BF14F4807167D157
:1032500051076BD471E05206CED514F04002CBD0AA
:10326000CA6822F04002CA60202180F8411002B0F2
:10327000BDE8B04000F0D0BAC26B116849688BB2AB
:10328000002B42D0858DAB423FD2C185D169B1F5CB
:10329000807F33D0016851E8031F026821F48071F8
:1032A00042E80313002BF5D1016851E8051F0268BD
:1032B00021F0010142E80513002BF5D1016851E826
:1032C000051F026821F0400142E80513002BF5D1EB
:1032D000202180F842100021016300BF016851E8FD
:1032E000031F026821F0100142E80313002BF5D1FF
:1032F000C16B04460846FEF7F5F8204602214163FB
:10330000818DC28D891A89B2B9E0818D99427FF48D
:1033100073AFD269B2F5807F7FF46EAF0222ADE069
:10332000416C41F001014164510706D5BEF1000F27
:1033300003D0416C41F002014164910706D5BEF112
:10334000000F03D0416C41F004014164BCF1000F57
:1033500006D55EEA050103D0416C41F008014164E5
:10336000416C00293FF448AF910604D51DB10446D5
:1033700005F08AF9204601684969426C01F0400174
:1033800002F0080289184AD0016851E8031F026858
:1033900021F4907142E80313002BF5D1016851E844
:1033A000051F026821F0010142E80513002BF5D149
:1033B000016B01290AD100BF016851E8031F0268AF
:1033C00021F0100142E80313002BF5D1202180F8F1
:1033D00042100021016301684969490654D500BFC4
:1033E000016851E8051F026821F0400142E8051319
:1033F000002BF5D1C16B002946D048F2F942C0F646
:103400000002044608460A65FEF7ACF800283FF4BF
:10341000F3AEE06B016D02B0BDE8B0400847044672
:10342000FFF7B2FE0020606402B0B0BD891A00BF91
:10343000026852E8032F036822F4907243E80325E0
:10344000002DF5D1026852E8052F036822F0010231
:1034500043E80525002DF5D1202280F842200022E6
:10346000026300BF026852E8032F036822F01002D3
:1034700043E80325002DF5D1022289B2426302B050
:10348000BDE8B040FFF77EBE02B0BDE8B040FFF738
:103490007BBE026A32F8023B6FF35F234B6002622D
:1034A000C2E60000002804BF0120704710B50446A2
:1034B00090F8410028B9002084F84000204600F030
:1034C00021F8242084F841002068C16821F40051CB
:1034D000C160204605F038F92068016921F4904167
:1034E0000161416921F02A014161C16841F4005143
:1034F000C16000202021606484F8411084F84210EB
:10350000606310BD2DE9F04786B00446006844F6BC
:103510000001C4F2000100268842CDE90466CDE92D
:10352000026601966CD044F20041C4F20001884268
:1035300040F0D68043F630000096C4F202000169E4
:1035400046F2280841F4003101610169C4F2020821
:1035500001F40031009100990096016841F00101E9
:103560000160006801A900F00100009000980C20A3
:1035700001900220CDE90206032004900720059067
:103580000020C4F20200FEF7E1F940F2747508F180
:103590006000C2F200054FF0006A4FF48069C5E98F
:1035A000000A4FF400372846C5E90266C5E90496CB
:1035B000C5E90666C5E90876FEF7AAF8002818BF2F
:1035C000FDF786FCE563AC6340F2D47508F1780042
:1035D000C2F200054021C5E9000A05F1080080E8B3
:1035E00042022846C5E90566EE61C5E90876FEF7A0
:1035F0008FF800284FF0260618BFFDF769FC65E03C
:1036000043F630000096C4F20200016946F2280831
:1036100041F4802101610169C4F2020801F48021B2
:10362000009100990096016841F004010160006872
:1036300001A900F00400009000984FF44060019050
:103640000220CDE902060320049007200590002007
:10365000C4F2020000F50060FEF778F940F6340588
:10366000C2F200054FF0006A4FF480694FF4403712
:103670002846C5E9008AC5E90266C5E90496C5E998
:103680000666C5E90876FEF743F8002818BFFDF77F
:103690001FFCE563AC6340F6940508F13000C2F20C
:1036A00000054021C5E9000A05F10800002280E874
:1036B00006022846C5E90522EA61C5E90872FEF757
:1036C00027F84FF0270608B1FDF702FC3046052128
:1036D0000022A563AC63FEF7C9FA3046FEF7B4FAE0
:1036E00006B0BDE8F087000090F84230202B1CBFE8
:1036F0000220704700294FF0010318BF002A01D1B2
:10370000184670470023036305F08EB8B0B5044631
:1037100040F63420C2F20000844213D140F2385007
:1037200040F24055C2F20000C2F20005006829785C
:1037300005F026F940F63420C2F2000029460122A5
:10374000FFF7D2FF40F67C20C2F20000844218BF8F
:10375000B0BD40F2604041F22014C2F20000C2F25B
:1037600000040068217805F00BF940F67C20C2F2D5
:10377000000021460122BDE8B040FFF7B5BF0000C0
:1037800070470000B0B590F84140202C1CBF0220CB
:10379000B0BD134600294FF0010218BF002B01D124
:1037A0001046B0BD4FF0000C212401628384C38415
:1037B000C0F844C080F8414002680446806B48F27B
:1037C000416E48F28165C0F6000EC0F60005C0E902
:1037D0000FE548F20555C0F600050432C0E9135C58
:1037E000FEF736F830B110206064202084F84100E4
:1037F0000120B0BD20686FF040010160206850E8F2
:10380000050F216840F0800041E80502002AF5D14B
:1038100000221046B0BD0000704700007047000055
:10382000F0B583B0FDF758FB04F0C6FD00F04CFA8C
:1038300041F2A900C2F200000024847101F000FFEF
:1038400000F064FE00F036F9022005F06BF801F09C
:10385000F7FE2020CDE900403CA20A200A214FF6C5
:10386000FF73029401F068FF0C20CDE9004038A2FC
:103870000A202A214FF6FF73029401F05DFF3220E7
:10388000FEF736F80C2000F02FFB0028FAD135A007
:1038900002F04CFC1420FEF72BF835A002F046FC99
:1038A00001F0CEFE02F0AAFD01250C260027F8B19A
:1038B00039A214202D214FF6FF73CDE90076029531
:1038C00001F03AFF05F012F848B33EA2142041215E
:1038D0004FF6FF73CDE90076029501F02DFF4FF40E
:1038E000FA70FEF705F803B0BDE8F04001F0A8BE9D
:1038F00022A214202D214FF6FF73CDE90076029508
:1039000001F01AFF22A400BF50203A2122464FF6B0
:10391000FF73CDE90076029501F00EFFF4E723A2D4
:10392000142041214FF6FF73CDE90076029501F096
:1039300003FF22A450204E2122464FF6FF73CDE90B
:103940000076029501F0F8FEF4E700BF5231000066
:1039500057616974696E6720456E7465722E2E2EEC
:1039600000000000636C69636B206D302C31000037
:10397000636C69636B2052312C30000051756575A2
:103980006520696E6974206572726F7200000000B4
:103990005175657565210000517565756520696E05
:1039A000697420737563636573730000444D41202F
:1039B000696E6974206572726F720000444D412116
:1039C00000000000444D4120696E697420737563E6
:1039D0006365737300000000FEE700000000000054
:1039E00070B52DED028B0446C0ED000A80ED010A92
:1039F00010EE100AB0EE608A08F014FC054618EECE
:103A0000100A0E4608F00EFC9FED0F0B53EC102B26
:103A100008F080F99FED0E0B02460B4651EC100B9F
:103A200007F010FF2A46334607F058FE02460B46C1
:103A30002846314607F006FF07F01EFE0021C4E9C4
:103A40000201BDEC028B70BD182D4454FB211940BE
:103A5000000000000000F03F70B582B040F2435516
:103A6000C2F2000568784FF60744B0B104F57E70E5
:103A700083B2192028211922FDF766F800261120AB
:103A80000F2121224123009600F0B8FC00202021C4
:103A900032223023009600F0B1FCA87828210028BB
:103AA00018BF002419200F22234602B0BDE8704041
:103AB000FDF74AB82DE9F04F81B02DED028B82B0B1
:103AC0009FED4F8A40F6C820C2F20000B0EE480ACF
:103AD000F0EE480AFFF784FF40F6D820C2F200005B
:103AE000B0EE480AF0EE480AFFF77AFF41F2E8002C
:103AF000C2F20000B0EE480AF0EE480AFFF770FF8D
:103B000041F2F800C2F20000B0EE480AF0EE480AB6
:103B1000FFF766FF40F2B80440F26C60C2F20004A6
:103B2000C2F2000021460522FDF720FC0128019089
:103B30005BD040F2D007C2F200073878411C13284E
:103B4000397052D840F6C82940F2B01540F6D82A4C
:103B500041F2E80B40F2E02841F2F806C2F2000917
:103B6000C2F20005C2F2000AC2F2000BC2F2000863
:103B7000C2F20006A08800EE100AB8EE400A4846DD
:103B800001F010FFE188BDEEC00A10EE100A00EE51
:103B9000101A2880B8EE400A504601F003FF6188F1
:103BA000BDEEC00A10EE100A00EE101A6880B8EEE2
:103BB000400A584601F0F6FE2188BDEEC00A10EE1C
:103BC000100A00EE101AA8F80000B8EE400A3046BD
:103BD00001F0E8FEBDEEC00A397810EE100AA8F830
:103BE0000200481C14293870C4D30198013818BF4A
:103BF000012002B0BDEC028B01B0BDE8F08F00BF28
:103C00000000C8428EB005F0EFF940F2435640F292
:103C1000CA0A41F2A90540F2D80940F2D4040DF1D4
:103C2000040BC2F20006C2F2000AC2F20005C2F2A0
:103C30000009C2F200040DF10808019006E000BF7F
:103C40003178206051B30F2005F0BEF958460121AC
:103C500006F09CF904F0AEFE04F04EFF307808B197
:103C6000002710E0BAF80000DAF80210A5F81500F5
:103C7000C5F81710284649462D22FCF71DFC0746BB
:103C8000002818BF012705F0AFF9002F0190D7D108
:103C90002168411AC929D3D2D5E700BF4846294631
:103CA0002D22FCF760FC404629462D22FCF75BFCE8
:103CB00040F2CC20C2F200000068414600220023FE
:103CC00005F064FABFE7000010B5B9B040F2004358
:103CD000C4F2020340223893ADF8DC20389940F258
:103CE0001010C2F200000160BDF8DC108024818059
:103CF000BDF8DA104FF4807EC1803593ADF8D04026
:103D000035994FF4007C8160BDF8D0108181BDF8F9
:103D1000CE10C1813293ADF8C4E032990161BDF893
:103D2000C4108182BDF8C210C1822F93ADF8B8C013
:103D30002F998161BDF8B8108183BDF8B610C18399
:103D400008212C93ADF8AC102C990162BDF8AC1091
:103D50008184BDF8AA10C18410212993ADF8A01068
:103D600029998162BDF8A0108185BDF89E10C1859A
:103D700020212693ADF8941026990163BDF8941084
:103D80008186BDF89210C18603F580612391ADF85C
:103D90008820239A8263BDF888208287BDF8862018
:103DA000C2872091ADF87C40209A4FF400640264F1
:103DB000BDF87C20A0F84420BDF87A20A0F8462069
:103DC000A3F580621D92ADF870401D9C8464BDF81F
:103DD0007040A0F84C40BDF86E40A0F84E404FF443
:103DE00080541A92ADF864401A9C0465BDF8644092
:103DF000A0F85440BDF86240A0F856404FF480440B
:103E00001791ADF85840179C8465BDF85840A0F84C
:103E10005C40BDF85640A0F85E404FF40054149149
:103E2000ADF84C40149C0466BDF84C40A0F86440CA
:103E3000BDF84A40A0F8664011934FF48063ADF896
:103E40004030119C8466BDF84040A0F86C40BDF83D
:103E50003E40A0F86E404FF400440E92ADF834405E
:103E60000E9C0467BDF83440A0F87440BDF83240A1
:103E7000A0F876400B91ADF828E00B998167BDF86A
:103E80002810A0F87C10BDF82610A0F87E1008922B
:103E9000ADF81CE00899C0F88010BDF81C10A0F81F
:103EA0008410BDF81A10A0F886100592ADF810C065
:103EB0000599C0F88810BDF81010A0F88C10BDF856
:103EC0000E10A0F88E100292ADF804300299C0F8DE
:103ED0009010BDF80410A0F89410BDF80210A0F8DE
:103EE000961039B010BD000040F21011C2F200016E
:103EF00001EBC00251F830009188FDF7F1BD0000E0
:103F0000F0B581B004208DF803009DF8030040F265
:103F1000101600250728C2F200064FF0000445D80D
:103F2000012712E09DF80300012206EBC00156F8BC
:103F300030008988FDF7DAFD9DF8030001308DF827
:103F400003009DF80300082830D29DF803000022EA
:103F500006EBC00156F830008988FDF7C7FD8DF8E3
:103F600002509DF80200032809D9DBE79DF8020002
:103F700001308DF802009DF802000428D2D29DF88D
:103F8000020006EBC00156F830008988FDF7A8FD55
:103F90000028EBD19DF802009DF8031000EB810092
:103FA0000F38C0B207FA00F00443DFE7A6F10805B6
:103FB00007264027286CB5F84410FDF791FD07FA55
:103FC00006F1002806F1010608BF0C430F2E05F18B
:103FD0000805EFD140F2A810C2F2000001680460A9
:103FE00034EA010110D0880710D40122142A10D01D
:103FF000501C21FA02F292070246F7D5421E002118
:10400000132A88BF012108E0002009E001200021D7
:1040100003E00021132A88BF0121002918BF0020D6
:10402000C0B201B0F0BD000041F20C1440F24355A3
:1040300040F20206C2F20004C2F20005C2F200061B
:1040400003E000BF142004F0BFFFFFF759FF20700A
:1040500004F0C0F92178607021B1287810B90846C1
:1040600002F0D0FB607831788842EBD06978002983
:10407000E8D129783070002908BF02F029FDE1E776
:1040800040F2435441F20C15C2F20004C2F20005A2
:1040900040F60F76002709E06878A978884218BFB3
:1040A000A87001F06DFB1E2004F08EFF60780028E0
:1040B000F2D02078002808BF02F08AFAA5F8016043
:1040C0006770F0E72DE9F04383B00024C4F20204E6
:1040D0001646894607462046402100229846FDF7AD
:1040E00005FD2A208DF80100204610210022FDF751
:1040F000FDFC40F6F405C2F200050DF10101284671
:1041000001224FF47A73FEF731FA20461021012282
:10411000FDF7ECFC204640210122FDF7E7FC0137CA
:10412000380A8DF80200204610210022FDF7DEFC3F
:104130000DF10201284601224FF47A73FEF716FAB8
:10414000204610210122FDF7D1FC2046102100223B
:104150008DF80370FDF7CAFC0DF10301284601221A
:104160004FF47A73FEF702FA204610210122FDF780
:10417000BDFC0136300A8DF80400204610210022D3
:10418000FDF7B4FC01A9284601224FF47A73FEF72B
:10419000EDF9204610210122FDF7A8FC2046102150
:1041A00000228DF80560FDF7A1FC0DF10501284600
:1041B00001224FF47A73FEF7D9F92046102101222B
:1041C000FDF794FC204640210022FDF78FFC2B20B8
:1041D0008DF80600204610210022FDF787FC0DF126
:1041E0000601284601224FF47A73FEF7BFF92046F4
:1041F00010210122FDF77AFC204640210122FDF723
:1042000075FC09F10206300A8DF8070020461021DE
:104210000022FDF76BFC0DF10701284601224FF447
:104220007A73FEF7A3F9204610210122FDF75EFC08
:104230002046102100228DF80860FDF757FC02A9E6
:10424000284601224FF47A73FEF790F92046102198
:104250000122FDF74BFC08F10206300A8DF8090037
:10426000204610210022FDF741FC0DF109012846EE
:1042700001224FF47A73FEF779F9204610210122CA
:10428000FDF734FC2046102100228DF80A60FDF76E
:104290002DFC0DF10A01284601224FF47A73FEF736
:1042A00065F9204610210122FDF720FC204640211F
:1042B0000022FDF71BFC2C208DF80B00204610215E
:1042C0000022FDF713FC0DF10B01284601224FF4EB
:1042D0007A73FEF74BF9204610210122FDF706FC08
:1042E000204640210122FDF701FC03B0BDE8F08328
:1042F0002DE9F04F87B005460C46111A521B18BF26
:104300004FF0FF3200290E4648BF4E420129A3EB71
:1043100004004FF00107A8BF3A46191B18BF4FF021
:10432000FF310028059044BF434205930128B8BFE0
:104330000F460598DDF840C0864288BF304640F6FB
:10434000F40904904FEA1C204FF000084FF0000BD6
:104350004FF0000AC2F200090390CDE9016200BFEC
:10436000A8B2A1B202460B46FFF7ACFE03980026A6
:10437000C4F202068DF81A00304610210022FDF723
:10438000B5FB48460DF11A0101224FF47A73FEF78E
:10439000EDF8304610210122FDF7A8FB10981021FE
:1043A0008DF81B0030460022FDF7A0FB48460DF1BA
:1043B0001B0101224FF47A73FEF7D8F83046102122
:1043C0000122FDF793FBDDE901620599049B0BEBEC
:1043D00006004144B0EB030B0AF1010AD4BF834647
:1043E0001544B1EB03081FFA8AF0D4BF88463C4459
:1043F0008342B5D207B0BDE8F08F00002DE9F0414F
:1044000082B0DDF820801C460B4615460E46074656
:10441000CDF80080FFF76CFF384631463A46234618
:10442000CDF80080FFF764FF384621462A46234630
:10443000CDF80080FFF75CFF284631462A46234628
:10444000CDF80080FFF754FF02B0BDE8F081000016
:104450002DE9F04F85B015460E46013A591E1C460F
:1044600092B28BB231460290FFF72CFEA642019425
:1044700049D20E98002440F6F407C4F202044FEA31
:104480001029C2F2000705E0039E01990136B0B27F
:10449000884238D2029803960E9EA8420DF1120867
:1044A0000DF1130BF0D2DDF808A000BF204610215B
:1044B00000228DF81290FDF719FB38464146012283
:1044C0004FF47A73FEF752F8204610210122FDF7CF
:1044D0000DFB2046102100228DF81360FDF706FB2E
:1044E0003846594601224FF47A73FEF73FF82046CA
:1044F00010210122FDF7FAFA0AF1010A1FFA8AF0E7
:10450000A842D3D3C0E705B0BDE8F08F2DE9F04F46
:1045100081B00024C4F2020404F50065284610218D
:1045200000224FF00009FDF7E1FAC820FDF7E0F99D
:10453000284610210122FDF7D9FAC820FDF7D8F945
:104540006420FDF7D5F9204640210022FDF7CEFA80
:1045500011208DF80300204610210022FDF7C6FA35
:1045600040F6F405C2F200050DF1030128460122D0
:104570004FF47A73FDF7FAFF204610210122FDF770
:10458000B5FA204640210122FDF7B0FA7820FDF768
:10459000AFF9204640210022FDF7A8FAB1208DF89E
:1045A0000300204610210022FDF7A0FA0DF10301BF
:1045B000284601224FF47A73FDF7D8FF20461021D8
:1045C0000122FDF793FA204640210122FDF78EFAE1
:1045D00005208DF803002046102100220527FDF755
:1045E00085FA0DF10301284601224FF47A73FDF795
:1045F000BDFF204610210122FDF778FA3C26204617
:10460000102100228DF80360FDF770FA0DF103010F
:10461000284601224FF47A73FDF7A8FF20461021A7
:104620000122FDF763FA2046102100228DF8036075
:10463000FDF75CFA0DF10301284601224FF47A736D
:10464000FDF794FF204610210122FDF74FFA204686
:1046500040210022FDF74AFAB2208DF803002046DF
:1046600010210022FDF742FA0DF103012846012234
:104670004FF47A73FDF77AFF204610210122FDF7EF
:1046800035FA204640210122FDF730FA204610215C
:1046900000228DF803700527FDF728FA0DF10301BC
:1046A000284601224FF47A73FDF760FF204610215F
:1046B0000122FDF71BFA2046102100228DF803602D
:1046C000FDF714FA0DF10301284601224FF47A7325
:1046D000FDF74CFF204610210122FDF707FA204686
:1046E000102100228DF80360FDF700FA0DF103019F
:1046F000284601224FF47A73FDF738FF2046102137
:104700000122FDF7F3F9204640210022FDF7EEF9E2
:10471000B3208DF80300204610210022FDF7E6F9B2
:104720000DF10301284601224FF47A73FDF71EFFB5
:10473000204610210122FDF7D9F92046402101220F
:10474000FDF7D4F92046102100228DF803700527CB
:10475000FDF7CCF90DF10301284601224FF47A73DD
:10476000FDF704FF204610210122FDF7BFF9204686
:10477000102100228DF80360FDF7B8F90DF1030157
:10478000284601224FF47A73FDF7F0FE20461021EF
:104790000122FDF7ABF92046102100228DF80360BD
:1047A000FDF7A4F90DF10301284601224FF47A73B5
:1047B000FDF7DCFE204610210122FDF797F9204687
:1047C000102100228DF80370FDF790F90DF103011F
:1047D000284601224FF47A73FDF7C8FE20461021C7
:1047E0000122FDF783F92046102100228DF8036095
:1047F000FDF77CF90DF10301284601224FF47A738D
:10480000FDF7B4FE204610210122FDF76FF9204686
:10481000102100228DF80360FDF768F90DF1030106
:10482000284601224FF47A73FDF7A0FE204610219E
:104830000122FDF75BF9204640210022FDF756F9E1
:10484000B4208DF80300204610210022FDF74EF918
:104850000DF10301284601224FF47A73FDF786FE1D
:10486000204610210122FDF741F920464021012276
:10487000FDF73CF903208DF80300204610210022AB
:10488000FDF734F90DF10301284601224FF47A7344
:10489000FDF76CFE204610210122FDF727F9204686
:1048A00040210022FDF722F9C026204610210022D7
:1048B0008DF80360FDF71AF90DF103012846012276
:1048C0004FF47A73FDF752FE204610210122FDF7C6
:1048D0000DF9204640210122FDF708F94FF0280884
:1048E0002046102100228DF80380FDF7FFF80DF11E
:1048F0000301284601224FF47A73FDF737FE204664
:1049000010210122FDF7F2F808208DF8030020465F
:1049100010210022FDF7EAF80DF1030128460122DB
:104920004FF47A73FDF722FE204610210122FDF795
:10493000DDF804208DF803002046102100224FF0FE
:10494000040AFDF7D3F80DF10301284601224FF4C4
:104950007A73FDF70BFE204610210122FDF7C6F801
:10496000204640210022FDF7C1F8C1208DF8030048
:10497000204610210022FDF7B9F80DF10301284669
:1049800001224FF47A73FDF7F1FD20461021012238
:10499000FDF7ACF8204640210122FDF7A7F820469C
:1049A000102100228DF80360FDF7A0F80DF103013E
:1049B000284601224FF47A73FDF7D8FD20461021D6
:1049C0000122FDF793F8204640210022FDF78EF8E2
:1049D000C2208DF80300204610210022FDF786F842
:1049E0000DF10301284601224FF47A73FDF7BEFD55
:1049F000204610210122FDF779F8204640210122AE
:104A0000FDF774F80D208DF80300204610210022D8
:104A1000FDF76CF80DF10301284601224FF47A737B
:104A2000FDF7A4FD204610210122FDF75FF8204686
:104A3000102100228DF803904FF00009FDF756F881
:104A40000DF10301284601224FF47A73FDF78EFD24
:104A5000204610210122FDF749F82046402100227E
:104A6000FDF744F8C3208DF80300204610210022F2
:104A7000FDF73CF80DF10301284601224FF47A734B
:104A8000FDF774FD204610210122FDF72FF8204686
:104A900040210122FDF72AF88D272046102100220F
:104AA0008DF80370FDF722F80DF10301284601226D
:104AB0004FF47A73FDF75AFD204610210122FDF7CD
:104AC00015F82A262046102100228DF80360FDF7F4
:104AD0000DF80DF10301284601224FF47A73FDF71A
:104AE00045FD204610210122FDF700F82046402117
:104AF0000022FCF7FBFFC4208DF8030020461021A4
:104B00000022FCF7F3FF0DF10301284601224FF4C8
:104B10007A73FDF72BFD204610210122FCF7E6FFFA
:104B2000204640210122FCF7E1FF2046102100220F
:104B30008DF80370FCF7DAFF0DF10301284601221E
:104B40004FF47A73FDF712FD204610210122FCF785
:104B5000CDFFEE208DF80300204610210022FCF747
:104B6000C5FF0DF10301284601224FF47A73FDF7CA
:104B7000FDFC204610210122FCF7B8FF2046402111
:104B80000022FCF7B3FFC5208DF80300204610215A
:104B90000022FCF7ABFF0DF10301284601224FF480
:104BA0007A73FDF7E3FC204610210122FCF79EFFFB
:104BB000204640210122FCF799FF1A208DF80300BE
:104BC000204610210022FCF791FF0DF10301284639
:104BD00001224FF47A73FDF7C9FC2046102101220F
:104BE000FCF784FF204640210022FCF77FFF36209F
:104BF0008DF80300204610210022FCF777FF0DF10D
:104C00000301284601224FF47A73FDF7AFFC2046DA
:104C100010210122FCF76AFF204640210122FCF707
:104C200065FF70208DF80300204610210022FCF75C
:104C30005DFF0DF10301284601224FF47A73FDF761
:104C400095FC204610210122FCF750FF2046402110
:104C50000022FCF74BFFE0208DF8030020461021D6
:104C60000022FCF743FF0DF10301284601224FF417
:104C70007A73FDF77BFC204610210122FCF736FFFA
:104C8000204640210122FCF731FF2046102100225E
:104C90008DF803A0FCF72AFF0DF10301284601223D
:104CA0004FF47A73FDF762FC204610210122FCF7D5
:104CB0001DFF22208DF80300204610210022FCF762
:104CC00015FF0DF10301284601224FF47A73FDF719
:104CD0004DFC204610210122FCF708FF07208DF82B
:104CE0000300204610210022FCF700FF0DF1030114
:104CF000284601224FF47A73FDF738FC2046102134
:104D00000122FCF7F3FE0A208DF803002046102153
:104D10000022FCF7EBFE0DF10301284601224FF4BF
:104D20007A73FDF723FC204610210122FCF7DEFEFA
:104D30002E272046102100228DF80370FCF7D6FEA6
:104D40000DF10301284601224FF47A73FDF70EFCA2
:104D5000204610210122FCF7C9FE30208DF8030007
:104D6000204610210022FCF7C1FE0DF10301284668
:104D700001224FF47A73FDF7F9FB2046102101223E
:104D8000FCF7B4FE4FF0250A2046102100228DF8D2
:104D900003A0FCF7ABFE0DF10301284601224FF4FE
:104DA0007A73FDF7E3FB204610210122FCF79EFEFB
:104DB0002046102100228DF80360FCF797FE0DF1CC
:104DC0000301284601224FF47A73FDF7CFFB2046FA
:104DD00010210122FCF78AFE2046102100228DF8C6
:104DE0000380FCF783FE0DF10301284601224FF4F6
:104DF0007A73FDF7BBFB204610210122FCF776FEFB
:104E000026262046102100228DF80360FCF76EFE56
:104E10000DF10301284601224FF47A73FDF7A6FB3A
:104E2000204610210122FCF761FE204610210022BD
:104E30008DF80370FCF75AFE0DF10301284601229C
:104E40004FF47A73FDF792FB204610210122FCF704
:104E50004DFE3A208DF80300204610210022FCF779
:104E600045FE0DF10301284601224FF47A73FDF748
:104E70007DFB204610210122FCF738FE2046102140
:104E800000228DF80390FCF731FE0DF10301284656
:104E900001224FF47A73FDF769FB204610210122AD
:104EA000FCF724FE4FF0010B2046102100228DF864
:104EB00003B0FCF71BFE0DF10301284601224FF45D
:104EC0007A73FDF753FB204610210122FCF70EFEFA
:104ED00003208DF80300204610210022FCF706FE77
:104EE0000DF10301284601224FF47A73FDF73EFBD2
:104EF000204610210122FCF7F9FD4FF0130920464E
:104F0000102100228DF80390FCF7F0FD0DF1030154
:104F1000284601224FF47A73FDF728FB2046102122
:104F20000122FCF7E3FD204640210022FCF7DEFDD4
:104F3000E1208DF80300204610210022FCF7D6FD69
:104F40000DF10301284601224FF47A73FDF70EFBA1
:104F5000204610210122FCF7C9FD204640210122F4
:104F6000FCF7C4FD04208DF8030020461021002228
:104F70004FF00408FCF7BAFD0DF1030128460122A9
:104F80004FF47A73FDF7F2FA204610210122FCF764
:104F9000ADFD16208DF80300204610210022FCF7FD
:104FA000A5FD0DF10301284601224FF47A73FDF7A8
:104FB000DDFA204610210122FCF798FD06208DF82D
:104FC0000300204610210022FCF790FD0DF10301A3
:104FD000284601224FF47A73FDF7C8FA20461021C3
:104FE0000122FCF783FD0D208DF8030020461021DF
:104FF0000022FCF77BFD0DF10301284601224FF44E
:105000007A73FDF7B3FA204610210122FCF76EFDFA
:105010002D272046102100228DF80370FCF766FD35
:105020000DF10301284601224FF47A73FDF79EFA31
:10503000204610210122FCF759FD204610210022B4
:105040008DF80360FCF752FD0DF1030128460122A3
:105050004FF47A73FDF78AFA204610210122FCF7FB
:1050600045FD23208DF80300204610210022FCF787
:105070003DFD0DF10301284601224FF47A73FDF73F
:1050800075FA204610210122FCF730FD2726204624
:10509000102100228DF80360FCF728FD0DF10301BB
:1050A000284601224FF47A73FDF760FA204610215A
:1050B0000122FCF71BFD2046102100228DF8036021
:1050C000FCF714FD0DF10301284601224FF47A7319
:1050D000FDF74CFA204610210122FCF707FD20467F
:1050E000102100228DF803A0FCF700FD0DF1030153
:1050F000284601224FF47A73FDF738FA2046102132
:105100000122FCF7F3FC2046102100228DF80370E9
:10511000FCF7ECFC0DF10301284601224FF47A73F1
:10512000FDF724FA204610210122FCF7DFFC3B208A
:105130008DF80300204610210022FCF7D7FC0DF16A
:105140000301284601224FF47A73FDF70FFA204637
:1051500010210122FCF7CAFC00208DF80300204634
:1051600010210022FCF7C2FC0DF1030128460122A8
:105170004FF47A73FDF7FAF9204610210122FCF76B
:10518000B5FC2046102100228DF803B0FCF7AEFCE0
:105190000DF10301284601224FF47A73FDF7E6F979
:1051A000204610210122FCF7A1FC204610210022FC
:1051B0008DF80380FCF79AFC0DF1030128460122CB
:1051C0004FF47A73FDF7D2F9204610210122FCF743
:1051D0008DFC2046102100228DF80390FCF786FC00
:1051E0000DF10301284601224FF47A73FDF7BEF951
:1051F000204610210122FCF779FC204640210022A4
:10520000FCF774FC3A208DF80300204610210022A0
:10521000FCF76CFC0DF10301284601224FF47A7370
:10522000FDF7A4F9204610210122FCF75FFC20467F
:1052300040210122FCF75AFC05208DF8030020468E
:1052400010210022FCF752FC0DF103012846012237
:105250004FF47A73FDF78AF9204610210122FCF7FA
:1052600045FC204640210022FCF740FC29208DF817
:105270000300204610210022FCF738FC0DF1030149
:10528000284601224FF47A73FDF770F92046102169
:105290000122FCF72BFC204640210122FCF726FCD2
:1052A00001B0BDE8F08F00002DE9F04F8DB0179CE4
:1052B00015464FEA540927095FEA497209934FF0EE
:1052C000010318BF03EB141700EB540207FB04F6AD
:1052D000571E0A19531EBAB29BB207460A900F46D0
:1052E0000891FEF7EFFE002E00F00781A4F10C00FC
:1052F000C1B2800140EA9100C3B2052B00F2FD80EB
:105300000120984010F02B0F00F0F780169F0999AC
:1053100032464FEA1128390AA5F1200007910121F0
:10532000C0B2012E98BF0A464DF2B40100EB400610
:10533000C0F6000101EB061102914CF6C421C0F643
:10534000000101EB001101914EF284210027039628
:1053500040F6F405C0F600010A9EC4F20207059269
:105360000022C2F2000501EB80104FF0000B00900C
:1053700004930AE008980A9E01300890069A05985E
:105380000132049B824200F0B880032B06920DD0BC
:10539000012B09D063B903984CF25061C0F60001AB
:1053A00001EB800005E000BF019802E0029800E0F8
:1053B0000098104404784FF0000A0AE001360A9978
:1053C000B0B2401A4845D5D00AF1010ABAF1080F27
:1053D000D4D0189800284FF0010000FA0AF033D01A
:1053E0002042EBD00899B0B289B202460B46FEF7D4
:1053F00069FE3846102100228DF83280FCF776FBDA
:1054000028460DF1320101224FF47A73FDF7AEF810
:10541000384610210122FCF769FB099810218DF80C
:10542000330038460022FCF761FB28460DF13301BA
:1054300001224FF47A73FDF799F8384610210122C2
:10544000FCF754FBBAE700BF20421FD038461021BA
:1054500000228DF82E80FCF749FB28460DF12E0125
:1054600001224FF47A73FDF781F8384610210122AA
:10547000FCF73CFB099810218DF82F0038460022DC
:10548000FCF734FB28460DF12F011EE00798102190
:105490008DF8300038460022FCF728FB28460CA97E
:1054A00001224FF47A73FDF761F83846102101228A
:1054B000FCF71CFB169810218DF8310038460022AD
:1054C000FCF714FB28460DF1310101224FF47A73E9
:1054D000FDF74CF8384610210122FCF707FB0BF1D1
:1054E000010B5FFA8BF0B0FBF9F101FB190000280A
:1054F0007FF46AAF4FF0000B40E70DB0BDE8F08FCE
:105500002DE9F04F81B02DED028B88B0DDE9144C10
:10551000B5EE400A99461746B0EE408A0E468246DE
:10552000F1EE10FA4FEA5C0506950DDA00200290C4
:10553000504631462D224B46B1EE488A0094CDF8B4
:1055400004C0FFF7B1FEAA44002F70D09FED3B0AC4
:105550004FF0000828EE000ABCEEC00A10EE100A58
:105560000490CDF81490CDF81CA039E0DDF854A0DB
:10557000DDE906B1CDF804A0DDF814A010FB0B1096
:1055800080B2314603922E225346002400950294A5
:10559000FFF78AFE079CDDF854E0039A4FF0000CF9
:1055A000534608F101080137D00800EB8000A9EB51
:1055B00040005FFA88F111FB0B4140F0300288B2E5
:1055C000D2B23146CDE9005ECDF808C0FFF76CFEDF
:1055D00008F101085FFA88F0F9B288422C4626D219
:1055E0006FEA08003844010608D00121013801EBB8
:1055F000810102064FEA4101F8D100E00121049B3C
:10560000F8B2B3FBF1F94CF6CD415FFA88F20438F9
:10561000CCF6CC4125469042A9FB0112A6D0DDF87C
:1056200054E0079CDDE9053B4FF0000CBCE708B0F7
:10563000BDEC028B01B0BDE8F08F00BF00401C46FE
:1056400080B582B04FF0000C00200021A022802302
:10565000CDF800C0FEF7FCFE02B080BD2DE9F04F92
:1056600087B00DF1400A9AE800078B4606460027EE
:10567000059704972AB1B2F1FF3F0EDD002093B9E0
:105680003FE03046594630224346CDE9009A029722
:10569000FFF70AFE07B0BDE8F08F2D2052428DF8CB
:1056A000100001206BB34CF6CD4E11B20022CCF6A7
:1056B000CC4E0DF1100C03E00132D4B29C4220D24A
:1056C000D743FC18270609D0012700BF013C07EB90
:1056D000870725064FEA4707F8D100E00127B1FB0D
:1056E000F7F4A4FB0E57FD0805EB8505A4EB450771
:1056F000002FE1D047F03004C5B201300CF805406E
:10570000DAE79DF81010A1B104A84FEA5A05471E28
:10571000002400BFB0B2CAB259464346CDE9009A50
:105720000294FFF7C1FDB9782E44002907F1010763
:10573000F0D107B0BDE8F08F2DE9F04F83B09B4664
:105740001378CBB1DDE90C9ADDF838800D460646BA
:105750004FEA5A07541E00BFB0B2DAB229465B4680
:10576000CDE9009ACDF80880FFF79EFDA3783E446E
:10577000002B04F10104EFD103B0BDE8F08F00006D
:105780002DE9F04184B0FEF767F940F2CA00C2F299
:105790000000B0F9022046F267635A431714B0F9CB
:1057A00000103F0907EBD27241F20C141932C2F219
:1057B00000045943A2810A14120902EBD171283165
:1057C000B0F90400E18140F20601C2F2000100EBF1
:1057D0008000B1F90010800090FBF1F040F24351DD
:1057E000C2F20001097878300029208255D141F2B7
:1057F0008807C2F20007D7F80D000C2500EE100A4A
:10580000002662200A2107224FF6FF73CDE90065CA
:105810004FF6FF78FFF774FED7F811001E2100EE57
:10582000100A622007224FF6FF73CDE90065FFF7EB
:1058300067FED7F81500322100EE100A6220072219
:105840004FF6FF73CDE90065FFF75AFED7F8190050
:10585000462100EE100A622007224FF6FF73CDE9C1
:105860000065FFF74DFED7F81D005A2100EE100A23
:10587000622007224FF6FF73CDE90065FFF740FE77
:1058800041F2A900C2F20000827962206C2101235A
:10589000CDE900860295FFF7E1FEA088E1880122AC
:1058A0000023FBF751F9A089E189012248F21F4347
:1058B000FBF74AF9A089D4F80E10A080C4F80610AE
:1058C00004B0BDE8F08100008CB049F64931C0F663
:1058D0000001002003F002FA4CF6C020C3F28960F8
:1058E00003F028FB082003F039FB072003F0D0FA6F
:1058F00003F0B2FA40F2B81B40F24C5040F2495764
:1059000040F2CC2540F26468C2F2000BC2F2000003
:10591000C2F20007C2F200056C46C2F200080BF1A9
:105920000D064FF0010900F1150A06E0286821462E
:105930000022052303F092FB08B303F075FA3878D0
:105940000028F3D00020387040F24C50C2F2000022
:10595000007D2128EAD141F28800C2F200005146C0
:105960002122FAF700FE40F24350C2F2000080F814
:105970000390DBE703F058FA012003F025FB98F8C9
:1059800000000028F6D1304621462D22FAF7EBFD23
:105990002D208BF80C00584688F8009003F0EEFAA2
:1059A000CBE7000090ED021A90ED032AB7EE003A23
:1059B00033EE413A23EE022A21EE000A30EE020ACB
:1059C00080ED030A70470000B0B584B040F26C600F
:1059D00001230024C2F2000042F20001C0F600736D
:1059E000C4F201010125C0E90A340523CDE90244CE
:1059F000CDE900444FF44032057680F82040C36181
:105A000080F8305080E81600C0E903454561FBF797
:105A100093FB002818BFFBF75BFA0B20CDE90005CC
:105A200040F26C60C2F2000069460294FBF7E4FAAF
:105A3000002818BFFBF74CFA0C20009002200190C0
:105A400040F26C60C2F200006946FBF7D5FA00280C
:105A500018BFFBF73DFA002000900320019040F2B0
:105A60006C60C2F200006946FBF7C6FA002818BF56
:105A7000FBF72EFA012000900420019040F26C60A8
:105A8000C2F200006946FBF7B7FA002818BFFBF71F
:105A90001FFA0D2000900520019040F26C60C2F2C8
:105AA00000006946FBF7A8FA002818BFFBF710FAB8
:105AB00004B0B0BD80B582B0002043F63001019043
:105AC000C4F202010A6842F480020A600A6802F421
:105AD00080020192019A00900868002240F40010B0
