:020000040800F2
:10000000A00E0020810100085D3B00082739000890
:1000100000000000000000000000000000000000E0
:10002000000000000000000000000000ED4A000891
:100030000000000000000000C53C00085355000807
:100040009301000893010008930100089301000840
:100050009301000893010008D716000893010008D7
:1000600093010008930100085D160008751600084A
:100070009301000893010008930100089301000810
:100080009301000893010008930100089301000800
:1000900093010008930100089301000893010008F0
:1000A00093010008F5470008930100089301000838
:1000B000F55D0008055E0008930100089301000843
:1000C00000F002F800F030F80CA030C8083824180E
:1000D0002D18A246671EAB4654465D46AC4201D180
:1000E00000F022F87E460F3E0FCCB6460126334282
:1000F00000D0FB1AA246AB4633431847F471000008
:10010000147200000023002400250026103A01D3B9
:1001100078C1FBD8520700D330C100D50B607047BF
:100120001FB51FBD10B510BD01F0C2F81146FFF795
:10013000F7FF06F041F801F0DAF803B4FFF7F2FF39
:1001400003BC01F00DF9000070B505460C461646DB
:1001500002E00FCC0FC5103E102EFAD2082E02D3AB
:1001600003CC03C5083E042E07D301CC01C5361FBE
:1001700003E021782970641C6D1C761EF9D270BDD5
:100180000748804707480047FEE7FEE7FEE7FEE72F
:10019000FEE7FEE704480549054A064B70470000A4
:1001A000D7550008C1000008A0080020A00E0020BC
:1001B000A00A0020A00A0020FEB5054610460C4605
:1001C000184373D0AE468C460020AD1A01469C41C0
:1001D00067D36646002701243D46B61A9D4102D3E7
:1001E00013463A462124654676462F04360C3E4394
:1001F0002D0CB61A9D4104D3150C1B042B4312047D
:100200001034654676462F06360A3E432D0AB61A46
:100210009D4104D3150E1B022B4312020834654680
:1002200076462F0736093E432D09B61A9D4104D361
:10023000150F1B012B431201241D65467646AF079F
:10024000B6083E43AD08B61A9D4104D3950F9B00F6
:100250002B439200A41C65467646EF0776083E4382
:100260006D08B61A9D411AD392185B41641C16E0C2
:100270000018764665464941B71A9D4101910090A4
:1002800009D36046B11A98418E4684460098019978
:100290000025401C6941DD0752082A435B08641EA3
:1002A000E6D57246634603B0F0BDFFE70020014685
:1002B000C046C0462A462346F5E7F8B5042A2CD3A3
:1002C000830712D00B78491C0370401C521E830711
:1002D0000BD00B78491C0370401C521E830704D0BE
:1002E0000B78491C0370401C521E8B079B0F05D0D6
:1002F000C91ADF002023DE1B08C90AE0FFF724FF2C
:10030000F8BD1D4608C9FD401C46B4402C4310C032
:10031000121F042AF5D2F308C91A521EF0D40B7822
:10032000491C0370401C521EEAD40B78491C037010
:10033000401C012AE4D409780170F8BD01E004C032
:10034000091F0429FBD28B0701D50280801CC90735
:1003500000D00270704700290BD0C30702D0027092
:10036000401C491E022904D3830702D50280801C49
:10037000891EE3E70022EEE70022DFE700220309FF
:100380008B422CD3030A8B4211D300239C464EE0B0
:1003900003460B433CD4002243088B4231D303096C
:1003A0008B421CD3030A8B4201D394463FE0C3091E
:1003B0008B4201D3CB01C01A524183098B4201D336
:1003C0008B01C01A524143098B4201D34B01C01A21
:1003D000524103098B4201D30B01C01A5241C30899
:1003E0008B4201D3CB00C01A524183088B4201D308
:1003F0008B00C01A524143088B4201D34B00C01AF4
:100400005241411A00D201465241104670475DE008
:10041000CA0F00D04942031000D34042534000228B
:100420009C4603098B422DD3030A8B4212D3FC2234
:10043000890112BA030A8B420CD3890192118B42B3
:1004400008D3890192118B4204D389013AD09211C9
:1004500000E08909C3098B4201D3CB01C01A524184
:1004600083098B4201D38B01C01A524143098B424D
:1004700001D34B01C01A524103098B4201D30B0136
:10048000C01A5241C3088B4201D3CB00C01A52415B
:1004900083088B4201D38B00C01A5241D9D2430842
:1004A0008B4201D34B00C01A5241411A00D201467F
:1004B000634652415B10104601D34042002B00D5E9
:1004C0004942704763465B1000D3404201B50020AB
:1004D000C046C04602BD704770477047F0B50C4635
:1004E000871A9C410D46861A9D4103D2C01BA1412B
:1004F000D21963410D0D1F0DC94EEC1BAE435CD0EC
:100500007F057F0D0026002F51D02D05AC46A94355
:10051000DD020123ED0A1B051D4320231B1B24D4F0
:100520001746E740381871412F46E740CC199D40E7
:100530002818314661410C0D27D161449A4013D5EA
:100540000023401C594152000ED1400840000122B6
:100550004B005205D34207D305204007C14201D5C5
:10056000B04900E0B0493046F0BD6B00002A00D031
:1005700001229A181F23203C1B1B01D5002302E0F7
:10058000E540281871410C0DD7D001242405091924
:10059000C407CD0740084908E40F28436144002CF4
:1005A000D5D00024401C61419A40D0D1CDE76A05E6
:1005B000520DD9D1C90FC907D5E79C4D4E0000286F
:1005C00001D0012400E0002434195F00002A01D08A
:1005D000012600E00026BE19954FAC420CD8AE4271
:1005E0000AD8B44206D001256D05EC42BCD01046B5
:1005F0001946F0BD9942FCD000203946F0BDF0B557
:100600001FB40C460F46811A9F412546861A9D410C
:1006100006D20125ED076F40401ABC4152187B41BC
:10062000210D1E0D8D1BAC467D4D8D437ED0750575
:100630006D0D7CD00D05AE46AC431B031B0B794DF5
:1006400052429D41202366469B1B14D31746F74018
:10065000381800260090744160462F460741E4197F
:1006600000989D402818664116D4714671189A402A
:1006700025D5012320E093182A466A415200002B19
:1006800000D0521C1E23203E9B1B002B61DD3541F8
:10069000EE1728186641E8D5001876415B1C9A4091
:1006A00000D3401C4B05F3181524E34010D3002B56
:1006B00052D071467118D30FC01802D3491C05B02F
:1006C000F0BD0123DB079A42F9D140084000F6E76C
:1006D00001225205B21801D1002853D00123CC0ABF
:1006E000DB029943891E002A08D1020C03D0020CB8
:1006F0000004103902E00246002020390023550B87
:1007000005D112020823550B01D152010D23550CBE
:1007100001D112011B1DD50C01D192009B1C150D9E
:1007200001D152005B1C2025EE1A01E02CE022E0F2
:100730000546F54015439840CA1AE10769181305A4
:10074000C918002ABBDA032040070818C10FC907DF
:100750000FE071466118B2E7F107400808437110D5
:1007600071444A000CD001235B059A42A7D2C90FFD
:10077000C9070020A3E74905490D26D1002001E063
:100780000028F4D100219AE7284D6600002801D006
:10079000012100E0002171185F00002A01D001262C
:1007A00000E00026BE19224FA94210D8AE420ED852
:1007B000B14208D001256D05E94206D01946A802CC
:1007C000414010467BE79C4201D0214677E700205C
:1007D000394674E710B50C465C4005D50124E407A2
:1007E0006340FFF70CFF10BDFFF778FE10BD30B47B
:1007F0000C465C4004D50124E407634030BC6DE640
:1008000030BCFCE670B50124E40761400D465D4054
:1008100002D4FFF763FE70BD6340FFF7F0FE70BDCA
:10082000FF0700000000F0FF0000F07F0000E0FF85
:100830000000F87FF0B5F94D0C091E092C402E4040
:100840002F468BB0A7437DD0B543FCD0002E7AD085
:10085000002CFCD00D465D40ED0F2543AC1BFF2561
:10086000AD0464190894C502440DC9022143500D1A
:10087000DC0204430120C00701430443D20201917A
:10088000200C110C00958C46010423468B430A91E1
:1008900061460904E24D8A430991010A7D444919E0
:1008A0008039097805464D4301266D18F605751BFC
:1008B0006943C90C640B891C4C436418B5012C1B9B
:1008C000250C2E04B4434C434D43210C691889096F
:1008D0000591009DE90701D00121C90704912C462B
:1008E00001996708CD072F434C08059DE10B4D4347
:1008F0002D0C29466646754302950D4645432E4606
:10090000029D7D1BB44100950D465D4301942C0C66
:100910002F040D465543AE462D0C3D4302950394DE
:100920007546049C2D04641B049406D2029C039D0E
:10093000641C002675410395029401AC70CC009FA5
:100940007D1B01E03EE162E1B4410904009507919D
:1009500001940599A4086143090C0C464443650BB6
:10096000E7040C4666467443A646640B3C43039575
:1009700002947446049DE4042C1B049406D2029C49
:10098000039D641C002675410395029401AC70CC54
:10099000009F7D1BB44101940C465C430095650F9C
:1009A000E7000C465443A646640F3C43039502946B
:1009B0007446049DE4002C1B049406D2029C039D03
:1009C000641C002675410395029401AC70CC009F15
:1009D0007D1BB441AE09AF06049DC900AD092F438C
:1009E000049DA406AD060495079D3443691807913C
:1009F000059DE10B4D432D0C294666467543029536
:100A00000D4645432E46029D7D1BB44100950D4683
:100A10005D4301942C0C2F040D465543AE462D0C1E
:100A20003D43029503947546049C2D04641B049475
:100A300006D2029C039D641C002675410395029416
:100A400001AC70CC009F7D1BB44101948C050694D1
:100A5000079C890A611800950791019C0599A408D3
:100A60006143090C0D464543680BEF040D4664468F
:100A700065436C0B3C43049FED047D1BAC4602D2E6
:100A80000025641C6841009E019D371B8541084676
:100A9000584301950C46460FC5005443600F284348
:100AA0006546E4002C1B02D20025401C6E41019DCE
:100AB0003F1AB5412846BD09800628438446A0094F
:100AC000BF064E020699A40676180743079D00202C
:100AD00068410A99079019430020099B00906046DD
:100AE000FF1913434041E20F64003A43A446044611
:100AF000D71A8C41A04203D90120009020463A46E3
:100B0000C70F941840416246D20F224364466400E6
:100B10000494009CBE466400D71AA446044602977B
:100B20008C417746002F01D1A04204D96046401C79
:100B30008446029A2046C40FA64694184041049A5F
:100B40000546D20F224364466400D31A8D41714694
:100B5000002901D1A84202D928461A46641C104334
:100B60000122002800D0164361020020079B89194A
:100B700004465C410223002C02DB49181346644101
:100B8000089DCE0A2D145D194B056705E10A2C0559
:100B90000D1908993E43C9076940002B08D09340BE
:100BA00006D30022761C5141002B01D17608760035
:100BB0001C4A002D43DB154241D0AA433FD03046AA
:100BC0000BB0F0BD06180D464D41174C7642AC41B6
:100BD0001AD395181C465C41134A6D42A24113D3A7
:100BE000012252054C00D4420AD15C00D4420BD001
:100BF0004B4002D592021143E2E749004908DFE782
:100C00005940C90FC90718E000200849D8E705482E
:100C100001420DD10342F7D0F2E700000000FF07C8
:100C20003C6900000000F07F0000E0FF0000F87F5A
:100C3000114859400143C01241400020C0E7012340
:100C4000089A9B069A4205DC032252078918C90FAD
:100C5000C907B5E7052252078918074A1143D2127E
:100C60005140ADE770B515461C4602460B46284676
:100C70002146FFF7DFFD70BDFFFFFF7F0346CA027D
:100C8000400D10B510430A1504D00124E407204399
:100C9000002A05DB0A4CA21A04D4D040FF2A00DD4A
:100CA000002010BD4A00002B01D0012000E00020F0
:100CB000101801225205D042F2D8C817C04310BD07
:100CC0001E0400001F22030C02D10F22000402D0D8
:100CD000030E03D004E00020014670470002083AEA
:100CE000030F01D10001121F830F01D18000921E5A
:100CF000002801DB4000521E120551184205C012A7
:100D0000411810467047C10FC90700D04042012268
:100D100092071143D6E701218907D3E7F0B58B4C41
:100D20000F09254689B0BD437BD01D092646AE4339
:100D3000FAD00E465E402740F60F3E43254071D064
:100D400024012142FBD0FF24AD19A4042D1B0395DF
:100D500001252D05DB02DB0AC9022B43C90A294301
:100D60001E010901040F130F050121431701880B10
:100D7000820391432D098C46A90B1E438A03954398
:100D8000B30B9A0396433F09BA0B9403A743029609
:100D90002E467E430497B6464E19D7190C46019647
:100DA000544305977E43371B7646BF1B3601B64634
:100DB000BE0B361900967646BC043719009C01D349
:100DC000641C00946400002F01D001263443029E6D
:100DD000049F754366467E430496760034196E0080
:100DE00034190094029C019E1C196643751BAE4683
:100DF000069465464519059C05956C43594375460F
:100E00000891691A0191049E01465143A41B049163
:100E1000611A009C0791E10605D061090122114386
:100E200002E072E06EE06109089D00272C0A2D06A1
:100E30006918049D7C412A0A2D066918019D6241AA
:100E4000AC0DAD026D185441079A910D92025519DF
:100E50006141029A644658435443069B059A5A439B
:100E6000121A131B9A0E9B015B187A41010B0005A5
:100E7000C3185141220A200644195A419A4200D20D
:100E8000491C01204002814203D315230226F64368
:100E900002E014230326F6432020C51AA940174672
:100EA000AF40DA400A4320460399D840091473182A
:100EB00019055118039A3843D2075140AC4009D064
:100EC0000122944006D30022401C5141002C01D144
:100ED000400840001E4A934212D301220398920612
:100EE000904207DB0520400709181A480143C01249
:100EF000414004E0032040070818C10FC907002043
:100F000009B0F0BD0020F107FAE705180C464C4186
:100F100011486D42A04115D394181A465A410E4803
:100F2000644290410ED301204A004005824209D319
:100F30005A00824206D35940C90F084AC907002007
:100F40001143DDE700200649DAE700000000FF0753
:100F5000FE070000FFFFFF7F0000E0FF0000F07FC2
:100F60000000F87F10B500F0F9F8006810BD10B56A
:100F7000044600F0F3F8046010BD0000F8B5224C00
:100F80004E00069DA6420AD8A64201D1002806D1ED
:100F90005E00A64203D8A6420AD1002A08D00D243A
:100FA000240425422CD02946002000F0DBF8F8BDAF
:100FB0000C461C430CD4994202D0EFF30080F8BDDC
:100FC000904202D0EFF30080F8BDEFF30080F8BD4F
:100FD00009242407E5008B4206D0EFF30080A043EC
:100FE000591A06D2284304E0101A05D3EFF3008003
:100FF000A04380F30088F8BDEFF30080A043F1E741
:10100000009500F0C7F8F8BD0000E0FFF0B501233F
:101010000A0DDB0200249A43E4430025002A28D06D
:101020005B1E9A4223D05B10D61AA64228DB721CA4
:1010300048D0342E18D20222142E2BD822D00B46A0
:101040000D36B34001D100280FD00024701E0B468E
:101050008340DB0FF2412846551EA943002B03D0E5
:101060008918002C00D09143F0BD0124EEE79A428C
:1010700039D04A000243F7D0C90FC9072846F0BD4E
:10108000002223E00122C30F400001D00024E2E748
:101090000124E0E70346133EB34011D00023741E41
:1010A0000746A740FC0FF2411746521E9043002C02
:1010B000E5D0002B00D0521CC01969419043F0BD0F
:1010C0000123ECE701220B0318430AD00023C90FC8
:1010D000C9072846002AF2D0002BF0D1054A114357
:1010E000F0BD0123F3E70A0301D10028F8D0002066
:1010F0000149F0BD0000F03F0000F87F70B50546E3
:101100004800440D124B0020002C0AD0634008D048
:101110009A4206DA6642B24203DD12054019514195
:1011200070BD002C08D0002B09D0C90FC907002AB8
:10113000F6DB084A114370BDC90FC90770BD2846C8
:101140000A03104302D00020034970BD284670BD39
:10115000FF0700000000F07F0000F87F00487047A4
:101160003C080020C80212D54803400F002804D0D4
:10117000C803C043012188407047EFF3008000019D
:10118000000903210907084380F300887047002005
:101190007047000010B500200249029A00F0AFF835
:1011A00010BD00000000F87FF0B53D4B02460C4634
:1011B0001C400020002C63D03A4D8B4366D00029A0
:1011C0006BDB0B0D1D05A94301252D0529430124CA
:1011D000FD33E34001D392184941FF3381339C46EC
:1011E0008B02940D0121234389074C429202002770
:1011F0001B198C105D1A04D42D1B02D42B466500DC
:10120000491992185B416408F4D15C1A08D401258D
:10121000ED07EE175519744102D42A462346491C9E
:1012200094185B41012292071D46E61B8D4106D4AE
:10123000B61A854103D42B46550034467F1924192C
:101240005B415208802AEFD1234300D00223384665
:101250000A22D04001D3012213438A05104362467B
:10126000890A12058918002B09D00122D34002D324
:101270000022401C5141002B01D140084000F0BD2C
:101280000B03134307D0C90FC907F0BD0803104370
:1012900003D1002901DB1046F0BD00202946F0BD36
:1012A0000000F07F0000F87F004870473C080020F5
:1012B0007546FFF7F9FFAE46050069465346C0087C
:1012C000C000854618B020B5FEF764FF60BC00275B
:1012D0004908B6460026C0C5C0C5C0C5C0C5C0C502
:1012E000C0C5C0C5C0C5403D49008D46704710B55A
:1012F0000446C046C0462046FEF71FFF10BD10B58D
:101300000C461107090F092904D00A290AD0082917
:101310000CD104E011460820FFF724FF06E0510637
:1013200006D501E0510601D50120C007214610BDB8
:10133000D10607D501010909CC084907000E0006AE
:10134000044309E0410F20024907000A0143200E2F
:1013500000061D22D14101430846E7E7704700001F
:1013600001491820ABBEFEE72600020070B58C18BC
:101370000578401C6B075B0F01D10378401C2A11D4
:1013800006D10278401C03E00678401C0E70491C10
:101390005B1EF9D12B0705D40023521E0DD40B7010
:1013A000491CFAE70378401CCB1A921C03E01D7815
:1013B0000D70491C5B1C521EF9D5A142D8D30020E8
:1013C00070BD10B5012210210920C00600F017FCE5
:1013D00010BD10B5002210210920C00600F00FFC3E
:1013E00010BD10B502460023002004E0145CE41890
:1013F000E3B2441CE0B28842F8DB184610BDF8B5F1
:1014000006460C46154621463046FFF7EAFF0746DA
:10141000A5202870002C04DD22463146681CFEF70A
:101420004CFF601C2F545A21A01C2954E01CC0B250
:10143000F8BDF7B504460D46032D02D20020C04387
:10144000FEBD2078A52803D1681E205C5A2802D052
:101450000020C043F4E7E81E86B2002E04DD3246C9
:10146000611C0298FEF729FFF1B20298FFF7B9FF5D
:101470000746A81E215CB94202D00020C043DFE726
:1014800030B2DDE710B500200A4908700A4908703B
:101490000A4908800A4908700A4908700122202177
:1014A000094800F0ACFBFF2201320849084801F06E
:1014B00075FE10BD04000020000000200200002086
:1014C000050000200C00002000040048BC030020A0
:1014D0002402002010B528480078002825D00020DC
:1014E000254908702548007800281ED12448008826
:1014F00000281ADD234A224801882348FFF799FF74
:101500000446002C0ADB1F490D390C7301201B49CE
:1015100008701C480D3805F02DF805E0FF22013257
:1015200019491A4801F03AFE00BF1948007800280E
:101530000ED000F06BFB17490968401A642807D3E6
:1015400000201349087000220821134800F057FBBF
:101550001248007800280ED000F058FB10490968A6
:10156000401A642807D300200C490870002210217B
:10157000094800F044FB10BD0000002004000020DA
:1015800002000020C9040020BC0300202402002027
:101590000500002008000020000400480C00002086
:1015A000100000200FB470B50446230004F04AFC7C
:1015B00005043C3F1830420008A8007A00280CDDE2
:1015C00008A8017A1E4A0930FFF719FF05462A4686
:1015D0001B491C4802F026F900BF04F025FF2AE051
:1015E00001201949087000F011FB18490860012218
:1015F0000821174800F003FB04F016FF00201549EE
:101600000870FF22013214490E4801F0C7FD12E0B4
:1016100004F00AFF00200F490870FF2201320E4932
:10162000084801F0BBFD06E004F0FEFE03E004F014
:10163000FBFE00E000BF00BF70BC08BC04B0184750
:10164000CC05002024020020050000200800002016
:101650000004004804000020BC03002010B503482B
:1016600000F096F8024800F093F810BD9C010020AD
:10167000E001002010B5034800F08AF8024800F0AD
:1016800087F810BD780300203403002010B504460D
:10169000054A2168881A1421FEF770FE8000206434
:1016A00001480838E06310BD0800024030B501244D
:1016B000056CAC40C56B6C60046863604468102CBA
:1016C00004D10468A2600468E16003E00468A160DA
:1016D0000468E26030BD10B5042000F079F910BD57
:1016E00072B600BFFEE701462120405C022808D008
:1016F0000420886300BF00222020425400BF012044
:101700007047086800680E2290430A6810600868F5
:101710000068400840000A68106001200A6C904090
:10172000CA6B506001222120425400BF00222020B9
:10173000425400BF0020E3E770B504460025212095
:10174000005D022803D00420A06301251EE020686C
:1017500000680E21884321680860206800684008FE
:101760004000216808600120216C8840E16B4860DE
:1017700001212120015500BF00212020015500BF7B
:10178000606B002802D02046616B8847284670BDF8
:1017900070B50446E06B0568206806680420216C7B
:1017A0008840284000281BD004203040002817D053
:1017B0002068006820210840002805D120680068C2
:1017C00004218843216808600420216C8840E16B73
:1017D0004860E06A002852D02046E16A88474EE01F
:1017E0000220216C88402840002823D0022030406D
:1017F00000281FD02068006820210840002808D158
:10180000206800680A21884321680860012121209E
:1018100001550220216C8840E16B486000BF002127
:101820002020015500BFA06A002828D02046A16AC8
:10183000884724E00820216C8840284000281ED0DA
:101840000820304000281AD0206800680E21884304
:10185000216808600120216C8840E16B486001200C
:10186000A06301212120015500BF00212020015546
:1018700000BF206B002802D02046216B884770BD36
:1018800070B504460025002C01D1012070BD022155
:1018900021200155206805680F480540A16860684F
:1018A0000843E16808432169084361690843A16965
:1018B0000843E16908430543206805602046FFF7B7
:1018C000E5FE0020A06301212120015500212020F8
:1018D00001550020DAE700000FC0FFFFF8B504460D
:1018E0000D4616461F460020009000BF2020005DD8
:1018F000012801D10220F8BD01212020015500BF9F
:101900002120005D01282DD1022121200155002038
:10191000A0632068006840084000216808603B46DA
:10192000324629462046FFF7C1FEE06A002806D06D
:10193000206800680E210843216808600BE02068D9
:1019400000680A21084321680860206800680421B3
:1019500088432168086020680068012108432168E5
:10196000086006E000BF00212020015500BF0220D2
:1019700000900098BFE7000070B5044600F046F9FB
:1019800006462546681C002802D0054800782D1818
:1019900000BF00F03BF9801BA842FAD370BD0000E5
:1019A0003001002010B504462046FFF7E5FF10BDCA
:1019B00010B50446042C07D104480068002803D061
:1019C000012002490968884710BD0000340000204A
:1019D00010B50446054840692040002804D003485B
:1019E00044612046FFF7E4FF10BD00000004014001
:1019F00078B503460A460021E4E001268E401468CB
:101A00003440002C7ED01579AD07AD0F012D04D0E8
:101A10001579AD07AD0F022D18D198684E0003253A
:101A2000B5400646AE4330464E00D568B540284323
:101A30009860586801258D400646AE433046102612
:101A4000556835402D098D40284358601579AD07FC
:101A5000AD0F032D0BD0D8684E000325B5400646C8
:101A6000AE4330464E009568B5402843D86015799E
:101A7000AD07AD0F022D15D1CD08AE001D462035A6
:101A8000A8594D07EE0E0F25B5400646AE43304629
:101A90004E07F60E1569B5402843CD08AD001E4629
:101AA0002036705118684E000325B5400646AE43F7
:101AB00030461579AD07AD0F4E00B540284318608C
:101AC0000326360455683540002D7AD000BF404DBE
:101AD000AD69012635433E4EB5613546AD69ED072A
:101AE000ED0F009500BF00BF3A4D8E08B600A85913
:101AF0008D072E0F0F25B5400646AE43304609250B
:101B0000ED0600E05DE0AB4201D1002514E0324D6E
:101B1000AB4201D101250FE0304DAB4201D102258E
:101B20000AE02F4DAB4201D1032505E02D4DAB421C
:101B300001D1042500E005258E07360FB540284366
:101B4000244D8E08B600A851274DA8680546A54328
:101B500028460126360555683540002D02D0054639
:101B600025432846204DA860E8680546A543284639
:101B70000126760555683540002D02D005462543DF
:101B80002846194DE86068680546A54328460126A1
:101B9000760455683540002D02D005462543284679
:101BA000114D686028680546A5432846012636047D
:101BB00055683540002D02D00546254328460A4D7C
:101BC0002860491C1568CD40002D00D015E778BD70
:101BD00000100240080001400004004800080048CE
:101BE000000C004800100048000401400246136940
:101BF0000B40002B01D0012000E000207047002A9C
:101C000001D0816100E081627047000001480068F6
:101C10007047000028010020034800680349097844
:101C20004018014908607047280100203001002059
:101C300010B50648006810210843044908600320D5
:101C400000F006F800F02EF8002010BD0020024041
:101C500070B50446104801787D20C000FEF78EFB69
:101C6000064631460D480068FEF788FB054601F040
:101C700079FA002801D0012070BD042C07D200227F
:101C80002146501E00F03CF80548046001E00120A8
:101C9000F2E70020F0E700003001002034010020CE
:101CA0002C01002008B500BF0D48806901210843C0
:101CB0000B49886108468069C007C00F009000BFCB
:101CC00000BF00BF0846C069090408430449C86151
:101CD0000846C06909040840009000BF00BF08BD65
:101CE000001002400146002905DBCB06DB0E012275
:101CF0009A40024B1A6000BF7047000000E100E00C
:101D000070B504460D4616462946204604F0BEF836
:101D100070BD0000F8B50446002600250121090425
:101D20002068084088427AD100276048C0690903CA
:101D3000084000280DD100BF5C48C06908435B49DA
:101D4000C8610846C06909040840009000BF00BF90
:101D5000012757480068FF2101310840002816D1AB
:101D600053480068084352490860FFF74FFF064692
:101D700006E0FFF74BFF801B642801D90320F8BD64
:101D80004B480068FF21013108400028F1D0474846
:101D9000006A0321090208400546002D2DD0606825
:101DA0000840A84229D04148006A884305463F4878
:101DB000006A0121090408433C4908620846006A98
:101DC0000121090488433949086208460562E80789
:101DD000C00F002811D0FFF719FF064607E0FFF7F4
:101DE00015FF801B3349884201D90320C7E72F48DC
:101DF000006A022108400028F1D02C48006A032123
:101E0000090288436168084328490862012F05D107
:101E10000846C069090488432449C86100BF207886
:101E2000C007C00F002807D02048006B8008800042
:101E3000A16808431D490863022120680840022860
:101E400008D11A48006B032109048843E16808435C
:101E500016490863202120680840202807D113482C
:101E6000006B102188432169084310490863012150
:101E7000490420680840884207D10C48006B802143
:101E80008843A16908430949086301218902206840
:101E90000840884207D10548006B402188436169AA
:101EA000084302490863002069E70000001002406F
:101EB000007000408813000070B504460D46002CE9
:101EC00001D1012070BD58480068C007C00FA8426A
:101ED0000ED2554800684008400028435249086027
:101EE00008460068C007C00FA84201D00120E9E7FA
:101EF000022120680840022814D1042120680840EB
:101F0000042807D14948406807210902884340183E
:101F10004649486045484068F0218843A168084325
:101F2000424948602078C007C00F002847D0606849
:101F3000012808D13D4800680121490408400028D3
:101F400021D10120BEE76068022808D13748006827
:101F5000012149060840002815D10120B2E7606838
:101F6000032808D13148406B01214904084000286A
:101F700009D10120A6E72D48006802210840002869
:101F800001D101209EE729484068800880006168EF
:101F9000084326494860FFF739FE064607E0FFF789
:101FA00035FE801B2249884201D903208AE71F4859
:101FB00040680C210840616889008842EFD11A48C6
:101FC0000068C007C00FA8420ED917480068400833
:101FD000400028431449086008460068C007C00F45
:101FE000A84201D001206DE70421206808400428A0
:101FF00008D10E484068072109028843E168084378
:102000000A49486000F032F808494968F022114056
:102010000909084A515CC840074908600320FFF7D6
:1020200017FE00204EE70000002002400010024092
:1020300088130000C47100083401002001480068C2
:10204000704700003401002000B5FFF7F7FF054995
:102050004968072212021140090A034A515CC8402C
:1020600000BD000000100240D4710008F8B5002542
:10207000002400270026002000902B4845680C20F3
:102080002840002849D0042804D0082805D00C286E
:1020900042D13EE02548009042E00F2080042840D5
:1020A000800C23490E5C2048C06A0007000F2149BC
:1020B0000C5C0320C00328400121090488420AD196
:1020C0002246002319481946FEF776F8314603F0F8
:1020D000A1FE07461BE00320C00328400321C903DB
:1020E00088420AD12246002313481946FEF764F8B5
:1020F000314603F08FFE074609E0224600230F48D1
:102100001946FEF759F8314603F084FE074600975A
:1021100006E00948009003E000BF0848009000BFB7
:1021200000BF0098F8BD00000010024040787D011B
:10213000A4710008B4710008006CDC0200127A007F
:10214000FEB50446002C01D10120FEBD2078C00759
:10215000C00F002872D0FC4840680C2108400428B9
:102160000CD0F94840680840082813D1F648406868
:10217000490308400121090488420BD1F248006854
:1021800001214904084000286BD06068002868D10C
:102190000120DAE700BF6068012807D1EA4800683B
:1021A000012109040843E849086031E0606800281B
:1021B0000ED1E5480068012109048843E24908601E
:1021C00008460068012189048843DF4908601FE050
:1021D000606805280ED1DC480068012189040843A5
:1021E000D949086008460068012109040843D64916
:1021F00008600DE0D4480068012109048843D249F1
:10220000086008460068012189048843CE490860B7
:1022100000BF6068002812D0FFF7F8FC054606E012
:10222000FFF7F4FC401B642801D903208DE7C64862
:1022300000680121490408400028F1D011E0FFF7AF
:10224000E5FC054606E0FFF7E1FC401B642801D9E8
:1022500003207AE7BC4800680121490408400028AF
:10226000F1D1022120680840022862D1B6484068B6
:102270000C21084000280CD0B348406808400828CA
:102280001CD1B1484068490308400121C903884274
:1022900014D1AD48006802210840002804D0E0684D
:1022A000012801D0012050E7A7480068F8218843A1
:1022B0002169C9000843A44908603AE0E0680028A1
:1022C00020D0A1480068012108439F490860FFF71A
:1022D0009DFC054606E0FFF799FC401B022801D94A
:1022E000032032E798480068022108400028F2D015
:1022F00095480068F82188432169C900084392493C
:10230000086016E090480068400840008E49086068
:10231000FFF77CFC054606E0FFF778FC401B02282F
:1023200001D9032011E788480068022108400028ED
:10233000F2D1082120680840082831D1E06900283E
:1023400017D08148406A012108437F494862FFF75E
:102350005DFC054606E0FFF759FC401B022801D949
:102360000320F2E67848406A022108400028F2D0B3
:1023700016E07548406A4008400073494862FFF71C
:1023800045FC054606E0FFF741FC401B022801D949
:102390000320DAE66C48406A022108400028F2D1A6
:1023A000042120680840042872D10020019066486A
:1023B000C0698906084000280ED100BF6248C06984
:1023C00008436149C8610846C06909040840009093
:1023D00000BF00BF012001905C480068FF2101316F
:1023E0000840002816D1594800680843574908603A
:1023F000FFF70CFC054606E0FFF708FC401B6428CD
:1024000001D90320A1E651480068FF2101310840AD
:102410000028F1D000BFA068012806D14A48006A10
:1024200001210843484908622AE0A06800280BD12E
:102430004548006A4108490043480162006A042196
:102440008843414908621BE0A06805280CD13E483A
:10245000006A042108433C4908620846006A0121D9
:102460000843394908620BE03748006A40084000D9
:10247000354908620846006A0421884332490862E7
:1024800000BFA068002813D0FFF7C0FB054608E096
:102490002BE0FFF7BBFB401B2D49884201D90320ED
:1024A00053E62948006A022108400028F1D011E0D3
:1024B000FFF7ACFB054607E0FFF7A8FB411B2448EC
:1024C000814201D9032040E61F48006A02210840EA
:1024D0000028F1D10198012806D11B48C0690121CB
:1024E000090788431849C86100BF102120680840C7
:1024F00010285FD1606901282CD11348406B04215A
:102500000843114948630846406B012108430E49BE
:102510004863FFF77BFB054606E0FFF777FB401BB0
:10252000022801D9032010E60748406B0221084029
:102530000028F2D00448406BF8218843A169C90003
:1025400008430149486335E0001002400070004034
:10255000881300006069401D00280FD18648406B39
:1025600004218843844948630846406BF821884326
:10257000A169C9000843804948631BE07E48406B5D
:10258000042108437C4948630846406B40084000EA
:102590004863FFF73BFB054606E0FFF737FB401BB0
:1025A000022801D90320D0E57348406B022108407E
:1025B0000028F2D1202120680840202852D16E48FE
:1025C00040680C2108400C280AD06B48406808403D
:1025D000082811D1684840684903084088420BD157
:1025E0006548406B01214904084000283AD0206A20
:1025F000012837D00120A8E5206A002819D05E48BC
:10260000406B0121090408435B494863FFF7FEFA68
:10261000054606E0FFF7FAFA401B022801D903201D
:1026200093E55548406B0121490408400028F1D04A
:1026300018E05148406B0121090488434E49486322
:10264000FFF7E4FA054606E0FFF7E0FA401B022830
:1026500001D9032079E54848406B0121490408402D
:102660000028F1D1606A00284FD0434840680C210F
:102670000840082864D0606A022847D13E480068B4
:102680000121090688433C490860FFF7BFFA054667
:1026900006E0FFF7BBFA401B022801D9032054E5EE
:1026A000354800680121490608400028F1D100BFE3
:1026B0003148C06A00090001216B08432E49C862F5
:1026C000A16AE06A08432C4949687B22D2039143FE
:1026D00008432949486000BF0846006801210906EF
:1026E000084325490860FFF791FA054606E0FFF721
:1026F0008DFA401B022801D9032026E51E480068F8
:102700000121490608400028F1D033E01A4800684A
:1027100001210906884318490860FFF777FA054642
:1027200006E0FFF773FA401B022801D903200CE5ED
:10273000114800680121490608400028F1D119E03C
:10274000606A012800D100E50B484668C76A03208B
:10275000C0033040A16A88420AD13907090F206BB3
:10276000814205D10F2080043040E16A884201D0C7
:102770000120EAE40020E8E4001002407047000075
:10278000F8B50446206846682068856840202840DF
:10279000800900280FD1E807C00F012148404840B8
:1027A000002808D0402030408009002803D020466F
:1027B000E16C8847F8BD022028404008002808D076
:1027C00080203040C009002803D02046216D884772
:1027D000F0E720202840400900280AD14020284066
:1027E0008009002805D1FF2001302840000A002878
:1027F0007ED02020304040090028F9D040202840D9
:10280000800900281ED05D20005D03280ED0206EB8
:1028100004210843206600BF002000902068C068A3
:10282000009020688068009000BF0BE000BF00208F
:1028300000902068C068009020688068009000BF09
:1028400000BFB7E7202028404009002811D0206EA3
:1028500001210843206600BF0020009020688068A6
:10286000009020680068402188432168086000BF0C
:1028700000BFFF2001302840000A00280BD0206E46
:1028800008210843206600BF00200090206880686F
:10289000009000BF00BF206E00283AD0206840683A
:1028A000E02188432168486001215D200155022014
:1028B0003040022803D0F007C00F002826D020683F
:1028C00040688008800021684860A06D00280BD017
:1028D0001148A16D4863A06DFEF72EFF002803D0BC
:1028E000206E402108432066606D002811D000E072
:1028F00010E00948616D4863606DFEF71DFF002818
:1029000007D0206E40210843206602E02046FFF7F2
:1029100035FF4FE700BF4DE70548000870B5044696
:10292000002C01D1012070BD606A002808D1FF2170
:1029300005316068884200D105E00021E16102E0D4
:102940000021216161610021A1625D20005D0028FC
:1029500004D15C200155204600F066F802215D207C
:1029600001552068006840218843216808600721DC
:102970000902E068884201D9002501E001252D0304
:102980000F210902E068884206D007210902E068A9
:10299000884201D00021A162FF2105316068084012
:1029A00021229202A16811400843022221691140AC
:1029B0000843217DC907C90F08431202A1691140CC
:1029C00008433822E169114008438022216A1140FE
:1029D00008439201A16A1140084321680860A06978
:1029E000000C042108401022616A114008430822AB
:1029F000616B114008430F221202E1681140084345
:102A00000121090329400843216848602068C06902
:102A10000121C90288432168C86100202066012184
:102A20005D20015500207EE710B586B004461421D4
:102A300001A8FDF7A1FC3949206888426CD100BF8C
:102A40003748806989140843354988610846806998
:102A500089140840009000BF00BF00BF30484069A3
:102A6000490108432E49486108464069012149044B
:102A70000840009000BF00BFE020019002200290BB
:102A800000200390032004900020059001A9092054
:102A9000C006FEF7ADFF23482349086000204860C8
:102AA0000021214881608021C160002101614161D4
:102AB000816101214903C161FEF7E2FE002801D0D6
:102AC000FEF70EFE00BF1848A065446200BF15481F
:102AD00014301649086010204860002113488160B6
:102AE0008021C160002101614161816101214903AF
:102AF000C161FEF7C5FE002801D0FEF7F1FD00BF61
:102B00000A486065446200BF002211461920FFF7A1
:102B1000F7F81920FFF7E6F806B010BD00300140C5
:102B2000001002401C0002409C010020E001002037
:102B3000FFB583B0044616461D46002002905D2076
:102B4000005D012802D002200290D6E0FF2105316D
:102B5000606888420ED1A06800280BD104215D2056
:102B6000015533460095049A1146204600F0B9F904
:102B700007B0F0BD00BF5C20005D012801D102203C
:102B8000F6E701215C20015500BFFFF73FF807463B
:102B90000498002801D0002E02D101200290ACE060
:102BA00004215D2001550020206604982064442003
:102BB0000653462006530020A063A087E087E06408
:102BC000206507210902E068884207D9206840682B
:102BD0000121090388432168486006E020684068B5
:102BE000012109030843216848600121C903A06845
:102BF00088420CD120680068402188432168086021
:102C000020680068012189038843216808602068E2
:102C1000006840210840402804D02068006808432C
:102C20002168086007210902E068884229D823E06A
:102C300020688068C007C00F00280DD02068007B86
:102C4000216C0870206C401C20644620005B401EF4
:102C500081B2462001530FE0FEF7D8FFC01BA84207
:102C600002D3681C002801D1002D05D10320029059
:102C700001215D20015540E04620005B0028D7D1AE
:102C800028E023E020688068C007C00F00280DD02E
:102C90002068C068216C0880206C801C206446205D
:102CA000005B401E81B2462001530FE0FEF7AEFFED
:102CB000C01BA84202D3681C002801D1002D05D1F9
:102CC0000320029001215D20015516E04620005BA3
:102CD0000028D7D13A462946204601F09FFD00281A
:102CE00001D020202066206E002802D00120029012
:102CF00002E001215D20015500BF00BF00215C20E2
:102D0000015500BF029833E7FFB583B0044616466D
:102D10001D460020029000BF5C20005D012802D10A
:102D2000022007B0F0BD01215C20015500BFFEF775
:102D30006DFF074601965D20005D012802D002204C
:102D40000290C7E00498002801D0002E02D1012093
:102D50000290BFE003215D20015500202066049809
:102D6000A063A687E6870020206400214420015349
:102D70004620015300202065E0640121C903A068BA
:102D800088420CD12068006840218843216808608F
:102D900020680068012189030843216808602068D1
:102DA000006840210840402804D02068006808439B
:102DB0002168086007210902E068884235D9606807
:102DC000002802D00198012809D1A06B0088216851
:102DD000C860A06B801CA063E08F401EE08720E0ED
:102DE000206880680221084002280AD1A06B008870
:102DF0002168C860A06B801CA063E08F401EE08744
:102E00000FE0FEF703FFC01BA84202D3681C002896
:102E100001D1002D05D10320029001215D20015533
:102E200058E0E08F0028DBD134E06068002802D051
:102E30000198012809D1A06B007821680873A06B64
:102E4000401CA063E08F401EE08720E0206880687F
:102E50000221084002280AD1A06B0078216808737B
:102E6000A06B401CA063E08F401EE0870FE0FEF7E0
:102E7000CDFEC01BA84202D3681C002801D1002D42
:102E800005D10320029001215D20015522E0E08F51
:102E90000028DBD13A462946204601F006FD0028ED
:102EA00001D020202066A068002809D100BF009032
:102EB0002068C068009020688068009000BF00BF54
:102EC000206E002802D00120029002E001215D2046
:102ED000015500BF00BF00215C20015500BF0298D2
:102EE0001FE7FFB585B004461D460E9E01200190E8
:102EF0000020009000BF5C20005D012802D102206C
:102F000009B0F0BD01215C20015500BFFEF77EFE37
:102F100007465D20005D029060680390049502986A
:102F200001280DD0FF2105310398884205D1A06802
:102F3000002802D10298042802D0022000900AE161
:102F40000698002804D00798002801D0002D02D14F
:102F500001200090FFE05D20005D042802D00521E3
:102F60005D20015500202066079820644620055307
:102F7000442005530698A063E587A5870020E064F8
:102F8000206507210902E068884207D92068406867
:102F90000121090388432168486006E020684068F1
:102FA0000121090308432168486020680068402126
:102FB0000840402804D02068006808432168086061
:102FC00007210902E068884257D96068002802D0CA
:102FD0000498012809D1A06B00882168C860A06B03
:102FE000801CA063E08F401EE0873EE02068806880
:102FF00002210840022811D1E08F00280ED001984C
:1030000001280BD1A06B00882168C860A06B801CD0
:10301000A063E08F401EE087002001902068806858
:10302000C007C00F002812D04620005B00280ED039
:103030002068C068216C0880206C801C20644620B9
:10304000005B401E81B24620015301200190FEF733
:10305000DDFDC01BB04208D3701C002805D0032042
:10306000009001215D20015575E0E08F0028BDD161
:103070004620005B0028B9D158E06068002802D0E3
:103080000498012809D1A06B007821680873A06B0F
:10309000401CA063E08F401EE08740E0206880680D
:1030A00002210840022811D1E08F00280ED001989B
:1030B00001280BD1A06B007821680873A06B401C1D
:1030C000A063E08F401EE0870020019020688068A8
:1030D000C007C00F002812D04620005B00280ED089
:1030E0002068007B216C0870206C401C2064462006
:1030F000005B401E81B24620015301200190FEF783
:1031000085FDC01BB04202D3701C002801D1002EE7
:1031100005D10320009001215D2001551BE0E08FC7
:103120000028BBD14620005B0028B7D13A46314683
:10313000204601F0BAFB002803D001200090202097
:103140002066206E002802D00120009002E00121BC
:103150005D20015500BF00BF00215C20015500BF6C
:103160000098CDE670B504462546681E0949884298
:1031700001D901200CE0681E074948610321081F9E
:1031800002F084FE002004498861072008610020C5
:1031900070BD0000FFFFFF0000E000E0F8B504464E
:1031A0000D46174680200059202839D1002D01D026
:1031B000002F01D10120F8BD01210903A068884238
:1031C00008D12069002805D1E807C00F002801D0E8
:1031D0000120F0E701202066002060663A4629467B
:1031E000204602F03FFD0646002E17D1206E012832
:1031F00013D110202168086200BF02F086FE009003
:10320000012002F008FF20680068102108432168AF
:103210000860009802F0FFFE00E001263046CAE791
:103220000220C8E7054B02689A4206D1002904DD56
:10323000034A11800122034B1A707047004400407A
:10324000020000200000002070477047F0B585B0F4
:1032500004462068C5692068066820688768EC48CD
:1032600028400390039800280FD1202028400028F0
:103270000BD020203040002807D0A06E002802D0BC
:103280002046A16E884705B0F0BD039800287DD088
:10329000F807C00F002803D1DE4830400028F6D0E0
:1032A000E807C00F00280DD0FF2001303040002873
:1032B00008D00120216808628420005901210843B8
:1032C000842108510220284000280CD0F807C00FA4
:1032D000002808D0022021680862842000590421B7
:1032E0000843842108510420284000280CD0F80706
:1032F000C00F002808D004202168086284200059EB
:10330000022108438421085108202840002810D0B9
:1033100020203040002803D1F807C00F002808D033
:10332000082021680862842000590821084384216C
:1033300008510120C002284000280ED0012080063C
:103340003040002809D00120C00221680862842092
:103350000059202108438421085184200059002865
:1033600054D020202840002809D0202030400028B8
:1033700005D0A06E002802D02046A16E8847842088
:103380000059029020688068402100E03FE008403A
:10339000402804D0282102980840002830D0204638
:1033A00002F0F6FA2068806840210840402823D1C6
:1033B00000BF02F0A7FD0190012002F029FE206865
:1033C00080684021884321688860019802F020FECF
:1033D00000BF606F00280BD08F48616F4863606F3B
:1033E000FEF7AAF9002811D0606F416B88470DE005
:1033F0002046FFF72AFF09E02046FFF726FF05E0F9
:103400002046FFF722FF0021842001513BE7206E78
:1034100001287DD110202840002879D0102030408C
:103420000028FAD0102021680862206880684021B6
:10343000084040286ED1606F0068406880B20190FB
:103440000198002863D05820015B019881425EDD1D
:103450005A2101980853606F806920284CD000BF22
:1034600002F050FD0090012002F0D2FD20680068BB
:10347000FF210131884321680860009802F0C8FDEF
:1034800000BF00BF02F03EFD0090012002F0C0FD31
:10349000206880684008400021688860009802F039
:1034A000B7FD00BF00BF02F02DFD0090012002F02B
:1034B000AFFD2068806840218843216888600098BB
:1034C00002F0A6FD00BF20218020015100202066CF
:1034D00000BF02F017FD0090012002F099FD206866
:1034E00000681021884321680860009802F090FD70
:1034F00000BF606FFEF7F7F8022060665820025B9D
:103500005A20005B101A81B22046FFF78BFEBAE604
:103510004FE0FFE75820015B5A20005B081A80B299
:1035200001905A20005B002842D0019800283FD02B
:1035300000BF02F0E7FC0090012002F069FD206866
:103540000068FF212131884321680860009802F05B
:103550005FFD00BF00BF02F0D5FC0090012002F02B
:1035600057FD206880684008400021688860009806
:1035700002F04EFD00BF2021802001510020206676
:10358000A06600BF02F0BEFC0090012002F040FDEA
:10359000206800681021884321680860009802F0C4
:1035A00037FD00BF0220606620460199FFF73AFE12
:1035B00069E601200005284000280CD00120800584
:1035C0003840002807D00120000521680862204605
:1035D000FFF73AFE57E68020284000280AD08020D6
:1035E0003040002806D0E06E002802D02046E16E70
:1035F000884748E640202840002807D04020304037
:10360000002803D0204602F003FA3CE600BF3AE669
:103610000F08000020010004C957000810B5044637
:10362000002C01D1012010BDA069002800D000E0CD
:1036300000BFE06F002805D1002178200155204609
:1036400000F02CF82420E067206800684008400063
:1036500021680860606A002802D0204601F0BCFFA3
:10366000204602F007FA012800D1DCE72068406814
:103670000921C902884321684860206880682A219E
:103680008843216888602068006801210843216818
:103690000860204602F018F8C5E7000010B586B0B3
:1036A0000446142101A8FCF767FE574920688842A8
:1036B0006ED100BF5548C0690121490408435349F0
:1036C000C8610846C069012149040840009000BF54
:1036D00000BF00BF4D48406908434C494861084657
:1036E0004069012149040840009000BF00BF0C2040
:1036F00001900220029000200390032004900120FA
:10370000059001A90920C006FEF772F94048414919
:1037100008600020486000213E4881608021C1602F
:10372000002101614161816101214903C161FEF70D
:10373000A7F8002801D0FDF7D3FF00BF3548606728
:10374000446200BF32481438334908601020486092
:103750000021314881608021C16000210161416107
:10376000816101214903C161FEF78AF8002801D077
:10377000FDF7B6FF00BF28482067446200BF002263
:1037800011461C20FEF7BCFA1C20FEF7ABFA39E00C
:1037900022492068884235D100BF1C48C0690121F8
:1037A000C90408431949C8610846C0690121C90410
:1037B0000840009000BF00BF00BF14484069891056
:1037C00008431249486108464069012149040840FC
:1037D000009000BF00BF0320019002200290002053
:1037E0000390032004900420059001A90920C0063D
:1037F000FEF7FEF8002211461D20FEF781FA1D207B
:10380000FEF770FA06B010BD004400400010024000
:10381000580002403403002078030020004C004090
:1038200070477047F8B504460E461546E06F2028ED
:1038300053D1002E01D0002D01D10120F8BD01216E
:103840000903A068884208D12069002805D1F00743
:10385000C00F002801D00120F0E7E6645020055396
:10386000522005530021842001512120E067206F60
:1038700000281CD01A48216F88621A48216FC8623C
:103880001948216F08630020216F486323681A4696
:1038900028322B46E16C206FFEF720F8002806D076
:1038A0001021842001512020E0670120C6E740203C
:1038B0002168086200BF02F025FB0746012002F0E4
:1038C000A7FB20688068802108432168886038460B
:1038D00002F09EFB00BF0020B0E70220AEE7000030
:1038E0002559000883590008E157000810B504461F
:1038F0000849206888420BD1012007490870FEF76B
:1039000085F906490860012210210548FEF777F97C
:1039100010BD0000004400400C00002010000020FA
:1039200000040048704700BFFEE7000008B500BF74
:103930000E484069012108430C4948610846406926
:10394000C007C00F009000BF00BF002211460A2030
:10395000FEF7D6F90A20FEF7C5F9002211460B2022
:10396000FEF7CEF90B20FEF7BDF908BD00100240AE
:1039700000B587B0142102A8FCF7FEFC00BF3D484B
:1039800040690121890508433A4948610846406970
:10399000012189050840019000BF00BF00BF3548E4
:1039A000406949110843334948610846406901218B
:1039B00049040840019000BF00BF00BF2D48406986
:1039C000490008432B4948610846406901218904A0
:1039D0000840019000BF00BF002210210920C0064E
:1039E000FEF70DF9002224492448FEF708F91020BB
:1039F000029001200390002004900320059002A96A
:103A00000920C006FDF7F4FF01200290002003907A
:103A1000049002A91948FDF7EBFF3A20029001201B
:103A2000039000200490059002A91448FDF7E0FFE0
:103A3000042002901120000403900020049002A9A9
:103A40000E48FDF7D5FF032080020290012003906D
:103A5000002004900320059002A90848FDF7C8FF44
:103A6000002211460620FEF74BF90620FEF73AF930
:103A700007B000BD001002403A0C000000040048EE
:103A800010B5124812490860FF2005304860002137
:103A90000F48816007210902C16000210161416175
:103AA0000121490281611021C1610021016241624D
:103AB00081620721C1620021016308214163FEF791
:103AC0002DFF002801D0FDF70BFE10BD0030014096
:103AD0003801002010B50E480E490860E120400270
:103AE000486000210B488160C16001610C21416187
:103AF00000218161C16101620020064948620846D7
:103B0000FFF78CFD002801D0FDF7EAFD10BD000095
:103B1000004400402402002010B50E480E49086001
:103B2000E1204002486000210B488160C1600161D2
:103B30000C21416100218161C161016200200649BF
:103B400048620846FFF76AFD002801D0FDF7C8FD6E
:103B500010BD0000004C0040AC02002000BFFEE79A
:103B6000FFB5FFB08AB00C4615461E46FF20013057
:103B7000844200DD0446002012490870FF21013113
:103B800048A80130FCF7F6FB224648A80130899985
:103B9000FCF793FB48A8047040A8858286750A4804
:103BA000006800280BD0FF220D3246A96846FCF7BA
:103BB000CBFA0020044F43A90EC93F68B8477FB035
:103BC0000EB0F0BD330000202000002010B5FFB083
:103BD0008BB003200A4908700A48006800280BD0FF
:103BE000FF220D3247A96846FCF7AEFA0220054CC9
:103BF00044A90EC92468A0477FB00BB010BD0000D7
:103C0000330000202000002010B5FFB08BB0022050
:103C10000A4908700A48006800280BD0FF220D32BC
:103C200047A96846FCF790FA0120054C44A90EC943
:103C30002468A0477FB00BB010BD00003300002007
:103C40002000002010B5FFB08BB000F067F800F046
:103C500051F800200A4908700A48006800280BD073
:103C6000FF220D3247A96846FCF76EFA0320054C87
:103C700044A90EC92468A0477FB00BB010BD000056
:103C8000330000202000002010B5FFB08BB00520CD
:103C90000A4908700A48006800280BD0FF220D323C
:103CA00047A96846FCF750FA0420054C44A90EC900
:103CB0002468A0477FB00BB010BD00003300002087
:103CC000200000207047000010B501210348FDF7D7
:103CD0008DFF012800D110BD0020FCE70004004842
:103CE00010B50122D1020248FDF789FF10BD000086
:103CF0000004004810B500220121C9020148FDF767
:103D00007EFF10BD0004004810B501229102024858
:103D1000FDF775FF10BD00000004004810B500223B
:103D2000012189020148FDF76AFF10BD0004004827
:103D300010B5012202210248FDF761FF10BD00000D
:103D40000004004810B5002202210248FDF757FF89
:103D500010BD00000004004801460120704700002B
:103D60000246002A01D11F207047002110E0C80040
:103D7000094B1858904209D8481CC0001858904266
:103D800004D9481CC000C0180079EDE7481CC1B236
:103D90001529ECD300BFFEE7F070000810B500F065
:103DA00023FF032808D0042802D0052806D101E00B
:103DB000022010BD0120FCE70320FAE70020F8E70D
:103DC0000320704710B504460E480460002000F040
:103DD000B3FF002001F0A6FA0B48007801F0EFF9DC
:103DE0000021084601F04CF80421002001F0DEFA21
:103DF00000231A460549084601F0A3F800200449AB
:103E0000087010BD1801002038000020FFFF0000DE
:103E10000D010020F8B55348007801287DD100201D
:103E20005049087000F0D4FE04464F4800F0BCFE34
:103E3000E007C00F00280CD04C480068002808D0CC
:103E40004A4800680068002803D0484909680868A3
:103E5000804702202040022820D1FF2269464448A2
:103E600000F022FF434800F0C9FE404800680028E7
:103E700013D03E480068806800280ED03D480C21D1
:103E800041560D2686578A190D23C35637480068B8
:103E90008568684601783648A84700BF4020204022
:103EA00040280CD131480068002808D02F4800680D
:103EB0000069002803D02D490968086980478020DF
:103EC0002040802810D12948006800280CD02748BD
:103ED00000688069002807D0FF2201322240100AC2
:103EE000224A12689169884701204002204001213E
:103EF0004902884223D100F077FE04280ED11B48E6
:103F0000006800281BD0194800684068002816D0B7
:103F1000164909684868804711E021E000F064FE16
:103F200005280CD111480068002808D00F48006807
:103F3000C068002803D00D490968C8688047202060
:103F4000204020280CD109480068002808D00748E4
:103F50000068C068002803D004490968C868804721
:103F6000F8BD00000D010020FFFF00001801002037
:103F700000070020EC060020F8B505460C46012697
:103F8000002700200090284600F0BAF8204600F0F4
:103F900095F8002000F03EF80120FDF703FD00F049
:103FA000EEFA3046F8BD0000012001490870704764
:103FB0000D01002070B50025012000F0A1F80020BF
:103FC00001F050F900240AE00120FDF7EBFC00F0BD
:103FD00082FEC007C00FA0400543601CC4B2202C65
:103FE000F2DB00F0CCFA284670BD10B5044620463E
:103FF00000F0FDFE10BD70B504460D461646324673
:104000002946204600F0FDFE70BD10B5044600F0C4
:1040100062FE10BD10B5044600231A460749084643
:1040200000F08FFF06480078012803D1054801F011
:1040300019F902E0A00101F015F910BD42020000DB
:104040000C010020FFFFFF0010B5044600231A46B4
:104050000749084600F075FF06480078012803D19B
:10406000054801F015F902E0A00101F011F910BDB9
:10407000FFFF00000C010020FFFFFF0070B50546A8
:104080000C4600231A460B49084600F05AFF00F080
:1040900005FE012802D10848C47301E006480472F5
:1040A000054801F00BF800222146284600F0DCFE0E
:1040B00070BD0000010200000008002010B5044699
:1040C000204601F083F810BD70B505460C46012D61
:1040D00006D1094804700948C47300F0EFFF09E0F5
:1040E0000648C079012805D10348047003480472CA
:1040F00000F0E4FF70BD0000000100200008002077
:1041000010B50446002C02D0012C07D000BF0020BF
:1041100001F03EF800200B49487010E0012001F04A
:1041200037F80848407807490978884206D005489A
:10413000007804494870487800F006F800BF00BFD6
:1041400010BD00001601002010B504460D48047093
:1041500044700120FFF7D4FF012C09D134211D2028
:10416000800101F0CDF94421074801F0C9F908E0C8
:1041700014211D20800101F0C3F92421024801F01F
:10418000BFF910BD1601002041070000FFB58DB03A
:104190000D461446199F179E7B491F980870012FE2
:1041A00003D17A491A98087002E0FF207749087015
:1041B0000D98002802D001287DD17DE0002001F07B
:1041C000C5F80021724801722038C4620B212830E2
:1041D00001736800FFF7C4FD01466D480830417364
:1041E00000206B4920390870F004000C488005213C
:1041F0006748203801711821417100218171012027
:10420000784063492039C871604801786048203897
:1042100001721B98012804D1F2215D4820384172B7
:1042200003E001215A4820384172002158482038C3
:10423000817200F0B4F95649097A002901D00121B0
:1042400000E000210846FFF75BFF5148083000F00E
:104250009FFE4F48203800F031FF4E4801F07DF8B6
:104260004D4801F0E7F82046FCF755FD02460B46A5
:104270000191009000204949FCF7DCFA0022484BEC
:1042800003910290FCF74AFD079106901898FCF7FD
:1042900042FD05910490079B069AFCF73FFD002222
:1042A000404B09910890FCF739FD0B910A90FCF7FF
:1042B000E5FC3D49086063E0002001F047F81899EB
:1042C000C8B200F05DFE012131480172083004746B
:1042D0003648415D2E480830417410998174002D94
:1042E00003D10B2C05D00C2C03D0012D06D10C2CA6
:1042F00004D1012126480830C17403E0002124487C
:104300000830C1740120224920390870084628303D
:10431000007C052804D008462830007C06280AD1F5
:104320000C2E04DA0C211A482038818106E0184846
:104330002038868102E016482038868114482038CB
:1043400087731248017812482038C1731B99017491
:104350001E9941740E49097A002901D0012100E01B
:1043600000210846FFF7CCFE0948083000F010FE97
:104370000748203800F0A2FE0D480B49086000BF36
:1043800000BF11B0F0BD00000C01002000010020B2
:10439000200800200E010020FF0100000000F03F77
:1043A0000000204000408F4008010020A07100085C
:1043B000FFFF000070B504460D462946204600F078
:1043C00083FF70BDFFB581B017461C460C9E0A9D49
:1043D0000198002802D0012850D150E000215B480C
:1043E00001722038C5620B21283001736000FFF78D
:1043F000B7FC014655480830417328380763002050
:10440000524920390870F004000C488004214F48BC
:1044100020380171182141710021817101210D980D
:1044200048404A492039C8710E98012804D1F22128
:1044300046482038417203E0012144482038417247
:10444000012142482038817200F0A9F83F49097AD9
:10445000002901D0012100E000210846FFF750FEAD
:104460003A48083000F094FD3848203800F026FE25
:10447000374800F072FF374800F0DCFF5CE00121B4
:1044800032480172083005743348015D2F48083006
:1044900041740B998174002C03D10B2D05D00C2D88
:1044A00003D0012C06D10C2D04D10121274808305E
:1044B000C17403E0002125480830C174012023495C
:1044C0002039087008462830007C052804D00846AA
:1044D0002830007C06280AD10C2E04DA0C211B4857
:1044E0002038818106E019482038868102E017488B
:1044F00020388681154820380D9981731748017836
:1045000012482038C1730E9901741199417400F05A
:1045100046F80E49097A002901D0012100E0002166
:104520000846FFF7EDFD0948083000F031FD074867
:10453000203800F0C3FD00BF00BF029800F08AFEE3
:1045400007491298086005B0F0BD0000200800205F
:104550000E010020FF010000A071000800010020F2
:104560000401002070B505460C461646284600F0AA
:104570002DFE204600F06EFE00F010FF70BD08B565
:10458000002000906946087804218843001D0090AF
:10459000009800F0B9FE0220FDF704FA08BD10B53E
:1045A000002000F0BFFE10BD10B500F075FC10BD7E
:1045B000F3B595B0002014901598002802D001287A
:1045C00055D155E07A49C86AFCF7A5FB0F910E90CA
:1045D0001698FCF7A0FB0791069075494A8849791F
:1045E000C9105018FCF78FFB059104907048C079F2
:1045F000002801D1034601E000206E4B02460393E0
:10460000029005990498FCF7E5F80446079B069A82
:10461000FCF7E0F8099108906548407A022803D138
:1046200000200121890701E00020014604462246BE
:104630000B4609990898FCF7CDF800225E4B0B91C8
:104640000A90FCF76BFB0D910C900F9B0E9AFCF7F8
:10465000F1F80022594B11911090FCF75FFB139178
:10466000129002F0A7FC0646FCF708FB14909BE0B2
:104670004F482830407CC01E3021484350494118E3
:104680004B482830007C0C22101AC000091803C9BE
:104690001391129046498889FCF73DFB044600229D
:1046A000484BFCF797F80646139B129AFCF736FB2B
:1046B000119110903E492831897C0791C9178A0FC2
:1046C0000799511889108A000799891A081DFCF763
:1046D0001AFB05910490364928310A7CC97C0029CF
:1046E00001DD022100E00021511A8800FCF70BFBDC
:1046F00004460D461699CA002D492831097C8900C7
:10470000521A1C322A49097C090152182849897B0E
:10471000012901D1142100E00021501AFCF7F3FA1D
:10472000064622462B46FCF785F80191009001F0E1
:1047300075FC03910290059B049AFCF7EFFA0F9128
:104740000E90002213460F990E9802F05BFC02D2E5
:104750000F990E9801E000200146044622460B46C0
:1047600000201549FCF736F80D910C90139B129A16
:104770000D990C98FCF7D2FA0B910A900B9B0A9AB0
:1047800011991098FCF726F8099108900E4A0F4BE2
:1047900009990898FCF71EF8044601F0A3FC0646A8
:1047A000FCF76CFA149000BF00BF149817B0F0BD6E
:1047B000000800200000F03F0000204000408F4033
:1047C00040000020000011402B8716D9CEF7EF3FA4
:1047D00070B504460D462946204600F091FE70BD96
:1047E00070B504460D46164632462946204600F06E
:1047F0008FFE70BD10B50248FDF7C2FF10BD00006E
:104800003801002070B505466C6A0021462001532E
:104810000020E0872046FDF7B1FF70BDF8B50446E3
:104820000E461546FF210531606888420ED10121F0
:10483000C903A068884203D04911A068884205D105
:1048400020680068402188432168086033460022C0
:1048500080212046009500F0DBF8002805D0206E6E
:104860002021084320660320F8BDFF210531606840
:10487000884218D10121C903A068884203D0491198
:10488000A06888420FD13346002203214902204606
:10489000009500F03FF8002805D0206E2021084345
:1048A00020660320E0E70020DEE7F8B504460E4668
:1048B0001546334600220321C9022046009500F028
:1048C00029F8002805D0206E202108432066032007
:1048D000F8BD3346002280212046009500F098F86C
:1048E000002805D0206E2021084320660320EFE732
:1048F00033460022032149022046009500F00AF8C1
:10490000002805D0206E2021084320660320DFE721
:104910000020DDE7F0B585B004460D4616461F467B
:1049200000200090FDF772F90A99401A381A039096
:10493000FDF76CF9029020680C3001903348006854
:1049400023214843000D03994843049056E0032077
:104950004002854206D1002E04D1019801780091D1
:1049600068460078781C002848D0FDF74FF9029976
:10497000411A0398814202D20398002837D1206857
:104980004068E021884321684860FF210531606864
:1049900088420ED10121C903A068884203D0491181
:1049A000A068884205D120680068402188432168BA
:1049B000086001214903A06A88420DD100BF206828
:1049C0000068884321680860206800680121490365
:1049D00008432168086000BF01215D20015500BF28
:1049E00000215C20015500BF032005B0F0BD0498F4
:1049F000002800D103900498401E0490206880682D
:104A00002840B042A3D10020EFE70000340100208D
:104A1000FFB583B004460D461E46FDF7F7F80C9926
:104A2000401A371AFDF7F2F801902F48006840014C
:104A3000000D7843029049E0701C002846D0FDF735
:104A4000E5F80199401AB84201D2002F37D1206809
:104A50004068E021884321684860FF210531606893
:104A600088420ED10121C903A068884203D04911B0
:104A7000A068884205D120680068402188432168E9
:104A8000086001214903A06A88420DD100BF206857
:104A90000068884321680860206800680121490394
:104AA00008432168086000BF01215D20015500BF57
:104AB00000215C20015500BF032007B0F0BD029823
:104AC000002800D100270298401E029020688068CC
:104AD0002840A84201D1012100E00021059881422F
:104AE000AAD10020E9E70000340100207047704798
:104AF000704701B501226946892000F0E7FC08BD36
:104B000038B504461B48844205D9E1216846017046
:104B1000E921417028E01848844205D9D721684628
:104B20000170D82141701FE01448844205D9C12189
:104B300068460170C521417016E01148844205D9CC
:104B4000752168460170812141700DE00D48844255
:104B500005D96B21684601706F21417004E06B211B
:104B6000684601706F21417002226946982000F06A
:104B7000ADFC38BD00E9A43580F8A9328044E52DAC
:104B8000000B6B1B40FC541910B500F02DF80028E9
:104B900003D000F029F8062803D100F072FCFFF7DB
:104BA000A7FF00F067FC10BD38B504462004010ED5
:104BB00068460170447002226946104600F086FC87
:104BC00038BD000001490870704700002501002031
:104BD00008B502226946122000F0EEF8694608780E
:104BE00000024978084308BD01480078704700007A
:104BF0001C010020014602207047000038B5044621
:104C000003226946142000F0D7F800F047F820701E
:104C10002078002804D0012814D00F2831D131E0A9
:104C2000684600782071684640784042401041B2A2
:104C3000A171684680784042401041B26171002104
:104C4000A16026E0684600784042401041B22173DE
:104C500068464078802804DA68464078811061739D
:104C600005E068464078FF38013881106173684676
:104C700080784042401041B2A17307480168216129
:104C800007E000BF14212046FBF776FB0F202070C1
:104C900000BF00BF38BD000020010020014800789F
:104CA000704700001D010020F8B505460C46164669
:104CB000002000906946204600F01CF82078B042A1
:104CC00001DD0120F8BD227829466846007800F011
:104CD00059F80020F6E738B500240122694615206E
:104CE00000F06AF8684600784042401044B220461E
:104CF00038BD000038B504460D460222694613202F
:104D000000F05AF8FFF7CAFF01280BD1094800F05C
:104D10006EF8C011002805D00648801E00F067F824
:104D2000207002E06846007820706846407828705D
:104D300038BD00000407000038B5044600200E49C5
:104D4000087000F082F800F09CFB002000F0EAFA06
:104D500001200A4908700A480078002808D040213C
:104D6000072000F0D8F87F2000900098FFF7C1FEE0
:104D7000012000F0C9F838BD240100201C010020EA
:104D80002501002070B506460C461546FFF7FCFECF
:104D9000FCF71FFB1E2001F04DFA304601F04AFAE5
:104DA000002001F047FA2946204601F031FAFCF7CD
:104DB00008FB00F05FFB70BD70B506460C4615465B
:104DC000FFF7E2FEFCF705FB304601F033FA002066
:104DD00001F030FA002D05DD002C03D0E9B22046A9
:104DE00001F016FAFCF7EDFA00F044FB70BD38B59F
:104DF000044601226946204600F003F86846007820
:104E000038BD70B504460D461646FFF7BDFEFCF7EB
:104E1000E0FA1D2001F00EFAFF21090221400812DC
:104E200001F008FAE0B201F005FA002001F002FA00
:104E3000002E05DD002D03D0F1B2284601F0E8F97F
:104E4000FCF7BFFA00F016FB70BD10B50A20FCF7A6
:104E5000A9FDFEF777FF1420FCF7A4FDFEF768FF1D
:104E60000A20FCF79FFD10BD70B505460E4614469E
:104E70003146284600F09AF9204600F079FA70BDD4
:104E800038B504460D4668460470457002226946EE
:104E90008F2000F01BFB38BD10B500221146C52045
:104EA00000F014FB07200149087010BD1C01002010
:104EB00038B504462004010E684601704470FFF7BF
:104EC000EDFE002805D102226946034800F020FBD0
:104ED00000E000BF00BF38BDBE06000038B5044684
:104EE0002004010E684601704470FFF7D7FE0028C9
:104EF00005D102226946034800F00AFB00E000BF2A
:104F000000BF38BDBC06000001B5012269469D20E6
:104F100000F0DCFA08BD38B505460C466907490FB4
:104F2000684601702002010E684641702004010E9F
:104F300068468170C47004226946972000F0C6FA62
:104F400038BDFEB504460D4616461F462004010E28
:104F50006846017044702804010E68468170C5706F
:104F60003004010E6846017146713804010E68462E
:104F70008171C77108226946104600F0A7FAFEBD8C
:104F800001B501226946A02000F0A0FA08BD00008A
:104F900070B58AB00446002500200890099020785A
:104FA0003A490978884202D0207800F0F1F8207858
:104FB000002804D0012853D00F2861D161E00826D1
:104FC0006068FBF7A8FE02460B46039102900020A2
:104FD0002F49FBF72FFC00222E4B05910490FBF785
:104FE0009DFE07910690FBF749FE05462802010E3B
:104FF00008A801702804010E08A841708570217B63
:10500000C170617B01710022234B1046990301F0AE
:10501000D3FA02460B460191009000201C49FBF791
:1050200009FC05910490A068FBF775FE03910290BE
:10503000059B049AFBF7FEFB07910690FBF71EFE0B
:1050400005462802010E08A841712804010E08A88F
:105050008171C571324608A98B2000F037FA12E041
:105060000426217C08A80170617C4170A17C8170BC
:10507000E17CC170324608A98B2000F027FA02E0DB
:1050800000BF0AB070BD00BF00BFFAE71D010020DD
:1050900080847E410000404000003940F8B504465D
:1050A0000D4616461F466846047045708670C770E8
:1050B00004226946952000F009FAF8BDFEB50446C1
:1050C0000026002000900190029020782B4909785A
:1050D000884202D0207800F05BF82078002804D0C5
:1050E00001282FD00F283ED13EE0607AF12807D169
:1050F0002348FFF7F3FE2348FFF7DAFE02260BE012
:10510000607AF22807D12048FFF7E8FE1F48FFF732
:10511000CFFE062600E0667A0925608800126946FF
:105120000870A17868464170217981706179C170F9
:10513000A1790171E1794171217A8171C671A17AF8
:10514000017212E00625A089001269460870217BD1
:1051500068464170A17B8170E17BC170217C017147
:10516000617C417101E000BFFEBD00BF2A46694677
:105170008C2000F0ABF900BFF6E700001D01002015
:10518000FFFF0000058000000F1D0000211000003F
:1051900001B56846007804490870012269468A20F2
:1051A00000F094F908BD00001D01002070B5044610
:1051B0000D462A462146002000F071F970BD01B568
:1051C00001226946962000F081F908BDF0B587B04C
:1051D000074600241C480078002805D13846FFF710
:1051E0008FFC0120184908700022184B10469903C3
:1051F00001F0E2F902460B460191009000201449AB
:10520000FBF718FB039102903846FBF784FD054637
:10521000039B029AFBF70EFB05910490FBF72EFD12
:105220000446200E694608762002010E6846417643
:105230002004010E68468176C476042206A98620E1
:1052400000F044F907B0F0BD24010020000039400F
:1052500080847E4110B504460421204600F0A6F863
:1052600010BD000038B5044605200849087020022A
:10527000010E684601702004010E6846417084707A
:1052800003226946822000F021F938BD1C0100206C
:1052900038B5044605200A4908709621094800F0EF
:1052A0002FF92002010E684601702004010E6846A5
:1052B0004170847003226946822000F007F938BDEE
:1052C0001C010020AC0800007CB504460D462002FD
:1052D000010E684601702004010E6846417084701A
:1052E0002802010E6846C1702804010E684601714B
:1052F000457106226946942000F0E8F8062001492D
:1053000008707CBD1C01002001B5FFF7F0FB0122F5
:105310006946842000F0DAF800200149087008BDD1
:105320001C01002001B501226946802000F0CEF862
:1053300068460078002803D101200349087002E084
:1053400002200149087008BD1C01002001B501229E
:1053500069469F2000F0BAF808BD10B5044608223F
:1053600021461B20800100F0D3F8002010BD000072
:1053700038B504460420084908702002010E68462A
:1053800001702004010E6846417084700322694652
:10539000832000F09BF838BD1C01002010B50022CE
:1053A0001146D12000F092F810BD000038B5044637
:1053B0000D460020FFF71EFC01281CD10F2C06D142
:1053C00001231A4600210620FFF768FE05E00123AD
:1053D0001A4600210420FFF761FE0E2C01DB0E248B
:1053E00004E00220C043844200DA04461821104839
:1053F00000F086F812E00123002207210420FFF7C5
:105400004DFE162C01DD162404E00220C043844228
:1054100000DA04463821064800F072F86846047045
:105420004570022269468E2000F050F838BD000019
:10543000E708000070B504460025FFF72FFC0028A0
:1054400013D1D720C000FFF7D2FCFE21084005464B
:10545000E005C00F05432946D720C00000F050F8F2
:10546000E1B2034800F04CF800E000BF00BF70BD9F
:10547000B906000010B500BFFEF726FC0028FBD1DE
:1054800010BD10B5FBF7A5FFC02000F0D3FE002033
:1054900000F0D0FEFBF795FFFFF7ECFF10BD70B5F5
:1054A00006460C461546FFF76FFBFBF792FF0E20F2
:1054B00000F0C0FE304600F0BDFE2946204600F058
:1054C000CBFEFBF77EFFFFF7D5FF70BD70B506463C
:1054D0000C461546FFF758FBFBF77BFF304600F004
:1054E000A9FE002D05DD002C03D0E9B2204600F016
:1054F000B3FEFBF766FF842E01D0FFF7BBFF70BD44
:1055000013B50446012201A9204600F001F81CBD94
:1055100070B504460D461646FFF736FBFBF759FFFC
:105520000D2000F087FEFF2109022140081200F043
:1055300081FEE0B200F07EFE002E05DD002D03D0DE
:10554000F1B2284600F088FEFBF73BFFFFF792FF21
:1055500070BD10B5FCF760FB10BD00B599B03421EB
:105560000CA8FAF709FF0020089009900A900B9008
:105570001C2101A8FAF700FF01200C900D900220D9
:105580001590C10316910321C904179104211891A4
:105590000CA8FCF7D5FD002801D0FCF7A1F80720E6
:1055A00008900220099000200A900B90012108A881
:1055B000FCF782FC002801D0FCF792F80220019051
:1055C0000020049001A8FCF7A5FB002801D0FCF7FF
:1055D00087F819B000BD70470822416A11400829B8
:1055E00007D10168496812039143426B1143026875
:1055F0005160818CC907C90F002908D0016849682A
:10560000012252049143826A1143026851600222CE
:10561000416A1140022907D101684968D2039143C8
:10562000C26A1143026851600422416A1140042990
:1056300007D10168496812049143026B1143026863
:1056400051601022416A1140102907D10168896810
:1056500012029143826B1143026891602022416AD9
:105660001140202907D10168896812029143C26B59
:105670001143026891604022416A1140402915D1CE
:105680000168496892039143026C114302685160BA
:1056900001221205016C914208D101684968032278
:1056A00052059143426C1143026851608022416A65
:1056B0001140802907D10168496812039143826C27
:1056C0001143026851607047F8B5044600218420F8
:1056D0000151FCF79BFA0546206800680821084044
:1056E000082823D137482B46002289040090204601
:1056F00000F026FB002819D000BF00F003FC06468E
:10570000012000F085FC2068006880218843216822
:105710000860304600F07CFC00BF2020E06700BF3E
:1057200000217820015500BF0320F8BD20680068E3
:1057300004210840042836D122482B4600220905BE
:105740000090204600F0FCFA00282CD000BF00F0AA
:10575000D9FB0646012000F05BFC20680068FF21B1
:105760002131884321680860304600F051FC00BFB9
:1057700000BF00F0C7FB0646012000F049FC20688E
:1057800080684008400021688860304600F040FC96
:1057900000BF20218020015100BF00217820015549
:1057A00000BF0320C1E72020E067202180200151B5
:1057B00000202066606600BF00217820015500BFF0
:1057C0000020B2E7FFFFFF0170B505466C6A0021BB
:1057D0005A200153522001532046FDF736FD70BD7B
:1057E000F8B505466C6AE66F802007592068806826
:1057F00080210840802807D1212E05D10021522088
:105800000153204600F01FF92068806840210840BD
:10581000402807D1222F05D100215A2001532046CC
:1058200000F0B6F884200059102108438421085163
:105830002046FDF70AFDF8BD70B505466C6AA869FB
:1058400020284DD000215A20015300BF00F05AFB00
:105850000646012000F0DCFB20680068FF210131D2
:10586000884321680860304600F0D2FB00BF00BFCB
:1058700000F048FB0646012000F0CAFB2068806863
:105880004008400021688860304600F0C1FB00BF3E
:1058900000BF00F037FB0646012000F0B9FB20688E
:1058A00080684021884321688860304600F0B0FB62
:1058B00000BF202180200151206E012810D100BF9F
:1058C00000F020FB0646012000F0A2FB20680068E3
:1058D0001021884321680860304600F099FB00BF22
:1058E00000206066206E012805D15820015B20460B
:1058F000FDF798FC02E02046FDF792FF70BD70B501
:1059000005466C6A01206066206E012806D1582089
:10591000005B41082046FDF785FC02E02046FDF7CC
:1059200080FF70BD70B505466C6AA869202824D038
:1059300000215220015300BF00F0E4FA0646012086
:1059400000F066FB206880688021884321688860B9
:10595000304600F05DFB00BF00BF00F0D3FA064602
:10596000012000F055FB20680068402108432168B1
:105970000860304600F04CFB02E02046FDF7B6FF21
:1059800070BD70B50446656A2846FDF7CBFF70BD53
:1059900070B5044600BF00F0B5FA0546012000F0DE
:1059A00037FB20680068FF212131884321680860A7
:1059B000284600F02DFB00BF00BF00F0A3FA05460B
:1059C000012000F025FB2068806840084000216825
:1059D0008860284600F01CFB00BF206E012810D113
:1059E00000BF00F08FFA0546012000F011FB20688F
:1059F00000681021884321680860284600F008FBF1
:105A000000BF20218020015100202066A06670BDCB
:105A100070B5044600BF00F075FA0546012000F09D
:105A2000F7FA20680068402188432168086028460A
:105A300000F0EEFA00BF2020E0670020E06620467C
:105A4000FDF754FF70BD70B5044600BF00F05AFA70
:105A50000546012000F0DCFA20680068C021884378
:105A600021680860284600F0D3FA00BF2020E067D4
:105A700070BD0000FEB50446002000902169A068BA
:105A8000084361690843E16908430290206800689F
:105A90006C49084002990843216808602068406802
:105AA000032109038843E168084321684860A0692D
:105AB0000290206A029908430290206880680B21B6
:105AC00009028843029908432168886000BF5E4943
:105AD0002068884217D15D48006B8007800F00283E
